:020000040800F2
:1000000088860020654A0308D5F60008D7F6000860
:10001000E1F60008EBF60008F5F600080000000025
:10002000000000000000000000000000FFF60008D3
:1000300009F700080000000013F7000829F700087E
:10004000C14F0308C54F0308C94F0308CD4F03082C
:10005000D14F0308D54F030895F70008D94F03087F
:10006000DD4F0308E14F0308E54F0308E94F03089C
:10007000ED4F0308F14F0308F54F0308F94F03084C
:10008000FD4F03080150030805500308000000005D
:1000900000000000000000000000000009500308FC
:1000A0000D50030811500308155003081950030898
:1000B0001FF7000815F7000859E700081D5003084E
:1000C0002150030825500308295003082D50030828
:1000D0003150030871F700087BF7000800000000AA
:1000E00035F70008355003083950030800000000B8
:1000F0000000000000000000000000003D50030868
:10010000000000004150030845500308495003080F
:1001100000000000000000000000000000000000DF
:100120004D50030851500308555003085950030817
:100130005D50030800000000000000000000000007
:1001400000000000000000000000000061500308F3
:1001500065500308695003086D5003087150030887
:1001600075500308795003080000000000000000EB
:10017000000000000000000000000000000000007F
:10018000000000007D500308000000000000000097
:10019000815003080000803F00000000B1FF7F3F56
:1001A000C70F493BC4FE7F3F890FC93B39FD7F3FE5
:1001B00059CB163C11FB7F3F900E493C4AF87F3FDC
:1001C0004B517B3CE6F47F3FB6C9963CE3F07F3F62
:1001D00069EAAF3C43EC7F3FB00AC93C05E77F3F8B
:1001E0007B2AE23C29E17F3FB949FB3CAFDA7F3F04
:1001F0002F340A3D98D37F3F2CC3163DE2CB7F3F7F
:10020000CC51233D8FC37F3F07E02F3D9EBA7F3FF8
:10021000D56D3C3D0FB17F3F2FFB483DE3A67F3FAF
:100220000E88553D189C7F3F6814623DB1907F3F1A
:1002300038A06E3DAB847F3F742B7B3D08787F3FB9
:100240000ADB833DC76A7F3F0A208A3DE95C7F3F26
:10025000B464903D6D4E7F3F05A9963D543F7F3F6E
:10026000F9EC9C3D9D2F7F3F8C30A33D491F7F3F84
:10027000BA73A93D580E7F3F80B6AF3DC9FC7E3FA3
:10028000DAF8B53D9DEA7E3FC33ABC3DD4D77E3F08
:10029000397CC23D6DC47E3F36BDC83D69B07E3FEE
:1002A000B7FDCE3DC99B7E3FB93DD53D8B867E3F98
:1002B000377DDB3DB0707E3F2EBCE13D385A7E3F3E
:1002C0009AFAE73D23437E3F7638EE3D722B7E3F20
:1002D000C075F43D24137E3F73B2FA3D38FA7D3F7A
:1002E0004577003EB1E07D3F0295033E8CC67D3FE1
:1002F0006EB2063ECCAB7D3F86CF093E6E907D3F11
:100300004AEC0C3E74747D3FB708103EDE577D3FCB
:10031000CA24133EAC3A7D3F8340163EDD1C7D3F30
:10032000E05B193E73FE7C3FDE761C3E6CDF7C3F5B
:100330007B911F3EC9BF7C3FB6AB223E8A9F7C3F6C
:100340008CC5253EB07E7C3FFCDE283E3A5D7C3F7E
:1003500004F82B3E283B7C3FA2102F3E7A187C3FAE
:10036000D428323E31F57B3F9840353E4DD17B3F1E
:10037000EC57383ECDAC7B3FCF6E3B3EB2877B3FE8
:100380003E853E3EFC617B3F379B413EAB3B7B3F26
:10039000B9B0443EBE147B3FC2C5473E37ED7A3FFD
:1003A0004FDA4A3E16C57A3F60EE4D3E599C7A3F81
:1003B000F101513E02737A3F0115543E10497A3FD4
:1003C0008F27573E841E7A3F97395A3E5EF3793F16
:1003D0001A4B5D3E9DC7793F135C603E439B793F5E
:1003E000836C633E4E6E793F667C663EC040793FCB
:1003F000BA8B693E9812793F7F9A6C3ED6E3783F7C
:10040000B2A86F3E7BB4783F51B6723E8684783F87
:100410005AC3753EF853783FCCCF783ED122783F0F
:10042000A4DB7B3E10F1773FE1E67E3EB7BE773F2F
:10043000C0F8803EC58B773FC07D823E3A58773FFB
:100440007002843E1724773FCE86853E5BEF763F71
:10045000DA0A873E07BA763F938E883E1B84763F42
:10046000F8118A3E974D763F07958B3E7A16763F78
:10047000C0178D3EC6DE753F229A8E3E7BA6753F25
:100480002C1C903E976D753FDD9D913E1D34753F50
:10049000351F933E0BFA743F31A0943E62BF743F08
:1004A000D220963E2284743F17A1973E4B48743F5A
:1004B000FE20993EDD0B743F86A09A3ED9CE733F55
:1004C000AF1F9C3E3F91733F789E9D3E0E53733FFE
:1004D000DF1C9F3E4714733FE59AA03EEBD4723F6A
:1004E0008718A23EF894723FC595A33E7054723FA0
:1004F0009F12A53E5213723F128FA63E9FD1713FAD
:100500001F0BA83E578F713FC486A93E7A4C713F9E
:100510000102AB3E0809713FD47CAC3E02C5703F7E
:100520003CF7AD3E6680703F3A71AF3E373B703F5F
:10053000CBEAB03E73F56F3FEF63B23E1BAF6F3F48
:10054000A5DCB33E30686F3FEC54B53EB0206F3F42
:10055000C3CCB63E9ED86E3F2A44B83EF88F6E3F5D
:100560001EBBB93EBE466E3FA031BB3EF2FC6D3FA6
:10057000AFA7BC3E93B26D3F4A1DBE3EA1676D3F23
:100580006F92BF3E1D1C6D3F1E07C13E07D06C3FE2
:10059000557BC23E5E836C3F15EFC33E24366C3FF5
:1005A0005C62C53E58E86B3F29D5C63EFB996B3F60
:1005B0007C47C83E0C4B6B3F53B9C93E8CFB6A3F2E
:1005C000AE2ACB3E7BAB6A3F8B9BCC3ED95A6A3F6F
:1005D000EA0BCE3EA7096A3FCA7BCF3EE4B7693F2C
:1005E0002AEBD03E9165693F095AD23EAE12693F6F
:1005F00067C8D33E3CBF683F4136D53E396B683F44
:1006000099A3D63EA816683F6B10D83E87C1673FB6
:10061000B97CD93ED86B673F80E8DA3E9915673FD1
:10062000C153DC3ECCBE663F79BEDD3E7167663F9E
:10063000A928DF3E880F663F4F92E03E10B7653F26
:100640006AFBE13E0B5E653FFA63E33E7904653F7A
:10065000FECBE43E59AA643F7533E63EAC4F643F9F
:100660005D9AE73E73F4633FB700E93EAC98633FA1
:100670008166EA3E5A3C633FBBCBEB3E7BDF623F89
:100680006330ED3E1082623F7994EE3E1A24623F61
:10069000FBF7EF3E98C5613FEA5AF13E8A66613F3B
:1006A00043BDF23EF206613F071FF43ECFA6603F16
:1006B0003580F53E2146603FCBE0F63EE9E45F3F02
:1006C000C840F83E27835F3F2DA0F93EDB205F3F07
:1006D000F7FEFA3E05BE5E3F275DFC3EA65A5E3F32
:1006E000BBBAFD3EBEF65D3FB217FF3E4D925D3F89
:1006F000063A003F532D5D3FE4E7003FD1C75C3F22
:100700007395013FC7615C3FB142023F34FB5B3FE1
:100710009FEF023F1A945B3F3D9C033F792C5B3F68
:100720008948043F50C45A3F84F4043FA05B5A3FB9
:100730002CA0053F6AF2593F824B063FAD88593FD6
:1007400086F6063F6A1E593F36A1073FA1B3583FC0
:10075000924B083F5348583F9BF5083F7FDC573F7B
:100760004E9F093F2670573FAD480A3F4803573F09
:10077000B7F10A3FE595563F6B9A0B3FFE27563F70
:10078000C9420C3F93B9553FD0EA0C3FA44A553FAC
:1007900081920D3F31DB543FDA390E3F3B6B543FC2
:1007A000DBE00E3FC3FA533F84870F3FC789533FB7
:1007B000D52D103F4918533FCDD3103F49A6523F86
:1007C0006B79113FC633523FB01E123FC2C0513F3A
:1007D0009AC3123F3D4D513F2A68133F37D9503FCE
:1007E0005F0C143FAF64503F39B0143FA8EF4F3F48
:1007F000B753153F1F7A4F3FD9F6153F17044F3FA8
:100800009F99163F908D4E3F073C173F89164E3FEC
:1008100012DE173F029F4D3FC07F183FFD264D3F20
:100820000F21193F79AE4C3F00C2193F78354C3F3C
:1008300093621A3FF8BB4B3FC6021B3FFA414B3F46
:1008400099A21B3F7FC74A3F0C421C3F874C4A3F3F
:100850001FE11C3F12D1493FD17F1D3F2155493F28
:10086000221E1E3FB3D8483F12BC1E3FCA5B483F02
:100870009F591F3F65DE473FCBF61F3F8560473FCF
:100880009393203F2AE2463FF92F213F5463463F8E
:10089000FBCB213F03E4453F9967223F3964453F45
:1008A000D302233FF5E3443FA99D233F3763443FF1
:1008B0001A38243F00E2433F25D2243F5160433F92
:1008C000CB6B253F29DE423F0A05263F895B423F2D
:1008D000E39D263F70D8413F5636273FE154413FC4
:1008E00061CE273FDAD0403F0566283F5C4C403F51
:1008F00041FD283F67C73F3F1594293FFC413F3FDB
:10090000802A2A3F1BBC3E3F82C02A3FC5353E3F5E
:100910001B562B3FF9AE3D3F4AEB2B3FB8273D3FDF
:100920000F802C3F03A03C3F69142D3FD9173C3F5B
:1009300059A82D3F3B8F3B3FDE3B2E3F29063B3FD7
:10094000F7CE2E3FA47C3A3FA5612F3FACF2393F52
:10095000E6F32F3F4268393FBB85303F65DD383FC6
:100960002217313F1652383F1DA8313F55C6373F39
:10097000AA38323F233A373FC9C8323F7FAD363FAE
:100980007A58333F6C20363FBCE7333FE792353F20
:100990008F76343FF304353FF304353F8F76343F91
:1009A000E792353FBCE7333F6C20363F7A58333F00
:1009B0007FAD363FC9C8323F233A373FAA38323F6E
:1009C00055C6373F1DA8313F1652383F2217313FD9
:1009D00065DD383FBB85303F4268393FE6F32F3F46
:1009E000ACF2393FA5612F3FA47C3A3FF7CE2E3FB2
:1009F00029063B3FDE3B2E3F3B8F3B3F59A82D3F17
:100A0000D9173C3F69142D3F03A03C3F0F802C3F7A
:100A1000B8273D3F4AEB2B3FF9AE3D3F1B562B3FDE
:100A2000C5353E3F82C02A3F1BBC3E3F802A2A3F3D
:100A3000FC413F3F1594293F67C73F3F41FD283F99
:100A40005C4C403F0566283FDAD0403F61CE273FEF
:100A5000E154413F5636273F70D8413FE39D263F42
:100A6000895B423F0A05263F29DE423FCB6B253F8B
:100A70005160433F25D2243F00E2433F1A38243FD0
:100A80003763443FA99D233FF5E3443FD302233F0F
:100A90003964453F9967223F03E4453FFBCB213F43
:100AA0005463463FF92F213F2AE2463F9393203F6C
:100AB0008560473FCBF61F3F65DE473F9F591F3F8D
:100AC000CA5B483F12BC1E3FB3D8483F221E1E3FA0
:100AD0002155493FD17F1D3F12D1493F1FE11C3FA6
:100AE000874C4A3F0C421C3F7FC74A3F99A21B3F9D
:100AF000FA414B3FC6021B3FF8BB4B3F93621A3F84
:100B000078354C3F00C2193F79AE4C3F0F21193F59
:100B1000FD264D3FC07F183F029F4D3F12DE173F1D
:100B200089164E3F073C173F908D4E3F9F99163FC9
:100B300017044F3FD9F6153F1F7A4F3FB753153F64
:100B4000A8EF4F3F39B0143FAF64503F5F0C143FE4
:100B500037D9503F2A68133F3D4D513F9AC3123F4A
:100B6000C2C0513FB01E123FC633523F6B79113F96
:100B700049A6523FCDD3103F4918533FD52D103FC2
:100B8000C789533F84870F3FC3FA533FDBE00E3FD3
:100B90003B6B543FDA390E3F31DB543F81920D3FBE
:100BA000A44A553FD0EA0C3F93B9553FC9420C3F88
:100BB000FE27563F6B9A0B3FE595563FB7F10A3F2C
:100BC0004803573FAD480A3F2670573F4E9F093FA5
:100BD0007FDC573F9BF5083F5348583F924B083FF7
:100BE000A1B3583F36A1073F6A1E593F86F6063F1C
:100BF000AD88593F824B063F6AF2593F2CA0053F12
:100C0000A05B5A3F84F4043F50C45A3F8948043FD4
:100C1000792C5B3F3D9C033F1A945B3F9FEF023F63
:100C200034FB5B3FB142023FC7615C3F7395013FBC
:100C3000D1C75C3FE4E7003F532D5D3F063A003FDC
:100C40004D925D3FB217FF3EBEF65D3FBBBAFD3E23
:100C5000A65A5E3F275DFC3E05BE5E3FF7FEFA3EAC
:100C6000DB205F3F2DA0F93E27835F3FC840F83E61
:100C7000E9E45F3FCBE0F63E2146603F3580F53E3C
:100C8000CFA6603F071FF43EF206613F43BDF23E30
:100C90008A66613FEA5AF13E98C5613FFBF7EF3E35
:100CA0001A24623F7994EE3E1082623F6330ED3E3B
:100CB0007BDF623FBBCBEB3E5A3C633F8166EA3E43
:100CC000AC98633FB700E93E73F4633F5D9AE73E3B
:100CD000AC4F643F7533E63E59AA643FFECBE43E19
:100CE0007904653FFA63E33E0B5E653F6AFBE13ED4
:100CF00010B7653F4F92E03E880F663FA928DF3E60
:100D00007167663F79BEDD3ECCBE663FC153DC3EB7
:100D10009915673F80E8DA3ED86B673FB97CD93ECA
:100D200087C1673F6B10D83EA816683F99A3D63E8F
:100D3000396B683F4136D53E3CBF683F67C8D33EFC
:100D4000AE12693F095AD23E9165693F2AEBD03E07
:100D5000E4B7693FCA7BCF3EA7096A3FEA0BCE3EA4
:100D6000D95A6A3F8B9BCC3E7BAB6A3FAE2ACB3EC7
:100D70008CFB6A3F53B9C93E0C4B6B3F7C47C83E66
:100D8000FB996B3F29D5C63E58E86B3F5C62C53E78
:100D900024366C3F15EFC33E5E836C3F557BC23EED
:100DA00007D06C3F1E07C13E1D1C6D3F6F92BF3EBA
:100DB000A1676D3F4A1DBE3E93B26D3FAFA7BC3EDB
:100DC000F2FC6D3FA031BB3EBE466E3F1EBBB93E3E
:100DD000F88F6E3F2A44B83E9ED86E3FC3CCB63ED5
:100DE000B0206F3FEC54B53E30686F3FA5DCB33E9A
:100DF0001BAF6F3FEF63B23E73F56F3FCBEAB03E80
:100E0000373B703F3A71AF3E6680703F3CF7AD3E76
:100E100002C5703FD47CAC3E0809713F0102AB3E75
:100E20007A4C713FC486A93E578F713F1F0BA83E75
:100E30009FD1713F128FA63E5213723F9F12A53E63
:100E40007054723FC595A33EF894723F8718A23E36
:100E5000EBD4723FE59AA03E4714733FDF1C9F3EE0
:100E60000E53733F789E9D3E3F91733FAF1F9C3E54
:100E7000D9CE733F86A09A3EDD0B743FFE20993E8B
:100E80004B48743F17A1973E2284743FD220963E70
:100E900062BF743F31A0943E0BFA743F351F933EFE
:100EA0001D34753FDD9D913E976D753F2C1C903E26
:100EB0007BA6753F229A8E3EC6DE753FC0178D3EDB
:100EC0007A16763F07958B3E974D763FF8118A3E0E
:100ED0001B84763F938E883E07BA763FDA0A873EB8
:100EE0005BEF763FCE86853E1724773F7002843EC7
:100EF0003A58773FC07D823EC58B773FC0F8803E31
:100F0000B7BE773FE1E67E3E10F1773FA4DB7B3E44
:100F1000D122783FCCCF783EF853783F5AC3753E04
:100F20008684783F51B6723E7BB4783FB2A86F3E5C
:100F3000D6E3783F7F9A6C3E9812793FBA8B693E30
:100F4000C040793F667C663E4E6E793F836C633E5F
:100F5000439B793F135C603E9DC7793F1A4B5D3ED2
:100F60005EF3793F97395A3E841E7A3F8F27573E6A
:100F700010497A3F0115543E02737A3FF101513E08
:100F8000599C7A3F60EE4D3E16C57A3F4FDA4A3E95
:100F900037ED7A3FC2C5473EBE147B3FB9B0443EF1
:100FA000AB3B7B3F379B413EFC617B3F3E853E3EFA
:100FB000B2877B3FCF6E3B3ECDAC7B3FEC57383E9C
:100FC0004DD17B3F9840353E31F57B3FD428323EB2
:100FD0007A187C3FA2102F3E283B7C3F04F82B3E22
:100FE0003A5D7C3FFCDE283EB07E7C3F8CC5253ED2
:100FF0008A9F7C3FB6AB223EC9BF7C3F7B911F3EA0
:101000006CDF7C3FDE761C3E73FE7C3FE05B193E6E
:10101000DD1C7D3F8340163EAC3A7D3FCA24133E23
:10102000DE577D3FB708103E74747D3F4AEC0C3E9E
:101030006E907D3F86CF093ECCAB7D3F6EB2063EC3
:101040008CC67D3F0295033EB1E07D3F4577003E73
:1010500038FA7D3F73B2FA3D24137E3FC075F43DEC
:10106000722B7E3F7638EE3D23437E3F9AFAE73D72
:10107000385A7E3F2EBCE13DB0707E3F377DDB3D70
:101080008B867E3FB93DD53DC99B7E3FB7FDCE3DAA
:1010900069B07E3F36BDC83D6DC47E3F397CC23DE0
:1010A000D4D77E3FC33ABC3D9DEA7E3FDAF8B53DDA
:1010B000C9FC7E3F80B6AF3D580E7F3FBA73A93D55
:1010C000491F7F3F8C30A33D9D2F7F3FF9EC9C3D16
:1010D000543F7F3F05A9963D6D4E7F3FB464903DE0
:1010E000E95C7F3F0A208A3DC76A7F3F0ADB833D78
:1010F00008787F3F742B7B3DAB847F3F38A06E3DEB
:10110000B1907F3F6814623D189C7F3F0E88553D2B
:10111000E3A67F3F2FFB483D0FB17F3FD56D3C3DA0
:101120009EBA7F3F07E02F3D8FC37F3FCC51233DC9
:10113000E2CB7F3F2CC3163D98D37F3F2F340A3D2F
:10114000AFDA7F3FB949FB3C29E17F3F7B2AE23C94
:1011500005E77F3FB00AC93C43EC7F3F69EAAF3CFB
:10116000E3F07F3FB6C9963CE6F47F3F4B517B3CB2
:101170004AF87F3F900E493C11FB7F3F59CB163C0C
:1011800039FD7F3F890FC93BC4FE7F3FC70F493BF5
:10119000B1FF7F3F000000000000803FC70F49BB48
:1011A000B1FF7F3F890FC9BBC4FE7F3F59CB16BC3F
:1011B00039FD7F3F900E49BC11FB7F3F4B517BBCFB
:1011C0004AF87F3FB6C996BCE6F47F3F69EAAFBCF8
:1011D000E3F07F3FB00AC9BC43EC7F3F7B2AE2BC0F
:1011E00005E77F3FB949FBBC29E17F3F2F340ABDAA
:1011F000AFDA7F3F2CC316BD98D37F3FCC5123BDC0
:10120000E2CB7F3F07E02FBD8FC37F3FD56D3CBD55
:101210009EBA7F3F2FFB48BD0FB17F3F0E8855BD63
:10122000E3A67F3F681462BD189C7F3F38A06EBD67
:10123000B1907F3F742B7BBDAB847F3F0ADB83BDC6
:1012400008787F3F0A208ABDC76A7F3FB46490BD9B
:10125000E95C7F3F05A996BD6D4E7F3FF9EC9CBDD3
:10126000543F7F3F8C30A3BD9D2F7F3FBA73A9BDF4
:10127000491F7F3F80B6AFBD580E7F3FDAF8B5BD3E
:10128000C9FC7E3FC33ABCBD9DEA7E3F397CC2BDEE
:10129000D4D77E3F36BDC8BD6DC47E3FB7FDCEBD41
:1012A00069B07E3FB93DD5BDC99B7E3F377DDBBD73
:1012B0008B867E3F2EBCE1BDB0707E3F9AFAE7BDC3
:1012C000385A7E3F7638EEBD23437E3FC075F4BD6D
:1012D000722B7E3F73B2FABD24137E3F457700BE6A
:1012E00038FA7D3F029503BEB1E07D3F6EB206BE87
:1012F0008CC67D3F86CF09BECCAB7D3F4AEC0CBE91
:101300006E907D3FB70810BE74747D3FCA2413BE33
:10131000DE577D3F834016BEAC3A7D3FE05B19BE91
:10132000DD1C7D3FDE761CBE73FE7C3F7B911FBEC5
:101330006CDF7C3FB6AB22BEC9BF7C3F8CC525BEEF
:101340008A9F7C3FFCDE28BEB07E7C3F04F82BBE2B
:101350003A5D7C3FA2102FBE283B7C3FD42832BE92
:101360007A187C3F984035BE31F57B3FEC5738BE4C
:101370004DD17B3FCF6E3BBECDAC7B3F3E853EBE6D
:10138000B2877B3F379B41BEFC617B3FB9B044BE17
:10139000AB3B7B3FC2C547BEBE147B3F4FDA4ABE64
:1013A00037ED7A3F60EE4DBE16C57A3FF10151BE72
:1013B000599C7A3F011554BE02737A3F8F2757BE5E
:1013C00010497A3F97395ABE841E7A3F1A4B5DBE48
:1013D0005EF3793F135C60BE9DC7793F836C63BE4B
:1013E000439B793F667C66BE4E6E793FBA8B69BE81
:1013F000C040793F7F9A6CBE9812793FB2A86FBE09
:10140000D6E3783F51B672BE7BB4783F5AC375BEFF
:101410008684783FCCCF78BEF853783FA4DB7BBE80
:10142000D122783FE1E67EBE10F1773FC0F880BE62
:10143000B7BE773FC07D82BEC58B773F700284BE4A
:101440003A58773FCE8685BE1724773FDA0A87BEA3
:101450005BEF763F938E88BE07BA763FF8118ABE5F
:101460001B84763F07958BBE974D763FC0178DBE88
:101470007A16763F229A8EBEC6DE753F2C1C90BE31
:101480007BA6753FDD9D91BE976D753F351F93BE61
:101490001D34753F31A094BE0BFA743FD22096BE26
:1014A00062BF743F17A197BE2284743FFE2099BE8D
:1014B0004B48743F86A09ABEDD0B743FAF1F9CBEA5
:1014C000D9CE733F789E9DBE3F91733FDF1C9FBE78
:1014D0000E53733FE59AA0BE4714733F8718A2BE10
:1014E000EBD4723FC595A3BEF894723F9F12A5BE80
:1014F0007054723F128FA6BE5213723F1F0BA8BECC
:101500009FD1713FC486A9BE578F713F0102ABBE08
:101510007A4C713FD47CACBE0809713F3CF7ADBE3C
:1015200002C5703F3A71AFBE6680703FCBEAB0BE75
:10153000373B703FEF63B2BE73F56F3FA5DCB3BEC0
:101540001BAF6F3FEC54B5BE30686F3FC3CCB6BE27
:10155000B0206F3F2A44B8BE9ED86E3F1EBBB9BEB6
:10156000F88F6E3FA031BBBEBE466E3FAFA7BCBE7C
:10157000F2FC6D3F4A1DBEBE93B26D3F6F92BFBE7F
:10158000A1676D3F1E07C1BE1D1C6D3F557BC2BECE
:1015900007D06C3F15EFC3BE5E836C3F5C62C5BE77
:1015A00024366C3F29D5C6BE58E86B3F7C47C8BE81
:1015B000FB996B3F53B9C9BE0C4B6B3FAE2ACBBEF8
:1015C0008CFB6A3F8B9BCCBE7BAB6A3FEA0BCEBEEB
:1015D000D95A6A3FCA7BCFBEA7096A3F2AEBD0BE61
:1015E000E4B7693F095AD2BE9165693F67C8D3BE67
:1015F000AE12693F4136D5BE3CBF683F99A3D6BE07
:10160000396B683F6B10D8BEA816683FB97CD9BE4D
:1016100087C1673F80E8DABED86B673FC153DCBE45
:101620009915673F79BEDDBECCBE663FA928DFBEF7
:101630007167663F4F92E0BE880F663F6AFBE1BE6E
:1016400010B7653FFA63E3BE0B5E653FFECBE4BEB9
:101650007904653F7533E6BE59AA643F5D9AE7BEDB
:10166000AC4F643FB700E9BE73F4633F8166EABEE6
:10167000AC98633FBBCBEBBE5A3C633F6330EDBEDF
:101680007BDF623F7994EEBE1082623FFBF7EFBED4
:101690001A24623FEA5AF1BE98C5613F43BDF2BECB
:1016A0008A66613F071FF4BEF206613F3580F5BED2
:1016B000CFA6603FCBE0F6BE2146603FC840F8BEF3
:1016C000E9E45F3F2DA0F9BE27835F3FF7FEFABE36
:1016D000DB205F3F275DFCBE05BE5E3FBBBAFDBEA3
:1016E000A65A5E3FB217FFBEBEF65D3F063A00BF88
:1016F0004D925D3FE4E700BF532D5D3F739501BF01
:10170000D1C75C3FB14202BFC7615C3F9FEF02BFE0
:1017100034FB5B3F3D9C03BF1A945B3F894804BF89
:10172000792C5B3F84F404BF50C45A3F2CA005BF02
:10173000A05B5A3F824B06BF6AF2593F86F606BF4E
:10174000AD88593F36A107BF6A1E593F924B08BF6B
:10175000A1B3583F9BF508BF5348583F4E9F09BF60
:101760007FDC573FAD480ABF2670573FB7F10ABF2D
:101770004803573F6B9A0BBFE595563FC9420CBFD4
:10178000FE27563FD0EA0CBF93B9553F81920DBF5B
:10179000A44A553FDA390EBF31DB543FDBE00EBFC0
:1017A0003B6B543F84870FBFC3FA533FD52D10BF07
:1017B000C789533FCDD310BF4918533F6B7911BF31
:1017C00049A6523FB01E12BFC633523F9AC312BF42
:1017D000C2C0513F2A6813BF3D4D513F5F0C14BF3B
:1017E00037D9503F39B014BFAF64503FB75315BF1E
:1017F000A8EF4F3FD9F615BF1F7A4F3F9F9916BFED
:1018000017044F3F073C17BF908D4E3F12DE17BFA6
:1018100089164E3FC07F18BF029F4D3F0F2119BF51
:10182000FD264D3F00C219BF79AE4C3F93621ABFEF
:1018300078354C3FC6021BBFF8BB4B3F99A21BBF7C
:10184000FA414B3F0C421CBF7FC74A3F1FE11CBF00
:10185000874C4A3FD17F1DBF12D1493F221E1EBF78
:101860002155493F12BC1EBFB3D8483F9F591FBFE7
:10187000CA5B483FCBF61FBF65DE473F939320BF4F
:101880008560473FF92F21BF2AE2463FFBCB21BFAE
:101890005463463F996722BF03E4453FD30223BF09
:1018A0003964453FA99D23BFF5E3443F1A3824BF5F
:1018B0003763443F25D224BF00E2433FCB6B25BFB3
:1018C0005160433F0A0526BF29DE423FE39D26BF04
:1018D000895B423F563627BF70D8413F61CE27BF54
:1018E000E154413F056628BFDAD0403F41FD28BFA3
:1018F0005C4C403F159429BF67C73F3F802A2ABFF1
:10190000FC413F3F82C02ABF1BBC3E3F1B562BBF42
:10191000C5353E3F4AEB2BBFF9AE3D3F0F802CBF94
:10192000B8273D3F69142DBF03A03C3F59A82DBFE8
:10193000D9173C3FDE3B2EBF3B8F3B3FF7CE2EBF40
:1019400029063B3FA5612FBFA47C3A3FE6F32FBF9A
:10195000ACF2393FBB8530BF4268393F221731BFF7
:1019600065DD383F1DA831BF1652383FAA3832BF57
:1019700055C6373FC9C832BF233A373F7A5833BFBD
:101980007FAD363FBCE733BF6C20363F8F7634BF28
:10199000E792353FF30435BFF304353FE79235BF97
:1019A0008F76343F6C2036BFBCE7333F7FAD36BF08
:1019B0007A58333F233A37BFC9C8323F55C637BF7D
:1019C000AA38323F165238BF1DA8313F65DD38BFF7
:1019D0002217313F426839BFBB85303FACF239BF77
:1019E000E6F32F3FA47C3ABFA5612F3F29063BBFFA
:1019F000F7CE2E3F3B8F3BBFDE3B2E3FD9173CBF80
:101A000059A82D3F03A03CBF69142D3FB8273DBF07
:101A10000F802C3FF9AE3DBF4AEB2B3FC5353EBF93
:101A20001B562B3F1BBC3EBF82C02A3FFC413FBF21
:101A3000802A2A3F67C73FBF1594293F5C4C40BFAF
:101A400041FD283FDAD040BF0566283FE15441BF41
:101A500061CE273F70D841BF5636273F895B42BFD2
:101A6000E39D263F29DE42BF0A05263F516043BF62
:101A7000CB6B253F00E243BF25D2243F376344BFF1
:101A80001A38243FF5E344BFA99D233F396445BF7D
:101A9000D302233F03E445BF9967223F546346BF07
:101AA000FBCB213F2AE246BFF92F213F856047BF8C
:101AB0009393203F65DE47BFCBF61F3FCA5B48BF0D
:101AC0009F591F3FB3D848BF12BC1E3F215549BF85
:101AD000221E1E3F12D149BFD17F1D3F874C4ABFF6
:101AE0001FE11C3F7FC74ABF0C421C3FFA414BBF5E
:101AF00099A21B3FF8BB4BBFC6021B3F78354CBFBA
:101B000093621A3F79AE4CBF00C2193FFD264DBF0C
:101B10000F21193F029F4DBFC07F183F89164EBF4E
:101B200012DE173F908D4EBF073C173F17044FBF83
:101B30009F99163F1F7A4FBFD9F6153FA8EF4FBFA9
:101B4000B753153FAF6450BF39B0143F37D950BFBA
:101B50005F0C143F3D4D51BF2A68133FC2C051BFB7
:101B60009AC3123FC63352BFB01E123F49A652BF9E
:101B70006B79113F491853BFCDD3103FC78953BF6D
:101B8000D52D103FC3FA53BF84870F3F3B6B54BF23
:101B9000DBE00E3F31DB54BFDA390E3FA44A55BFBC
:101BA00081920D3F93B955BFD0EA0C3FFE2756BF37
:101BB000C9420C3FE59556BF6B9A0B3F480357BF90
:101BC000B7F10A3F267057BFAD480A3F7FDC57BFC9
:101BD0004E9F093F534858BF9BF5083FA1B358BFDC
:101BE000924B083F6A1E59BF36A1073FAD8859BFC7
:101BF00086F6063F6AF259BF824B063FA05B5ABF8A
:101C00002CA0053F50C45ABF84F4043F792C5BBF1D
:101C10008948043F1A945BBF3D9C033F34FB5BBF84
:101C20009FEF023FC7615CBFB142023FD1C75CBFBB
:101C30007395013F532D5DBFE4E7003F4D925DBFBB
:101C4000063A003FBEF65DBFB217FF3EA65A5EBF22
:101C5000BBBAFD3E05BE5EBF275DFC3EDB205FBF1D
:101C6000F7FEFA3E27835FBF2DA0F93EE9E45FBF90
:101C7000C840F83E214660BFCBE0F63ECFA660BF2D
:101C80003580F53EF20661BF071FF43E8A6661BFEC
:101C900043BDF23E98C561BFEA5AF13E1A2462BFC5
:101CA000FBF7EF3E108262BF7994EE3E7BDF62BFAE
:101CB0006330ED3E5A3C63BFBBCBEB3EAC9863BF99
:101CC0008166EA3E73F463BFB700E93EAC4F64BF80
:101CD0005D9AE73E59AA64BF7533E63E790465BF55
:101CE000FECBE43E0B5E65BFFA63E33E10B765BF13
:101CF0006AFBE13E880F66BF4F92E03E716766BFA8
:101D0000A928DF3ECCBE66BF79BEDD3E991567BF10
:101D1000C153DC3ED86B67BF80E8DA3E87C167BF3E
:101D2000B97CD93EA81668BF6B10D83E396B68BF26
:101D300099A3D63E3CBF68BF4136D53EAE1269BFBF
:101D400067C8D33E916569BF095AD23EE4B769BFFF
:101D50002AEBD03EA7096ABFCA7BCF3ED95A6ABFD9
:101D6000EA0BCE3E7BAB6ABF8B9BCC3E8CFB6ABF43
:101D7000AE2ACB3E0C4B6BBF53B9C93EFB996BBF30
:101D80007C47C83E58E86BBF29D5C63E24366CBF99
:101D90005C62C53E5E836CBF15EFC33E07D06CBF6F
:101DA000557BC23E1D1C6DBF1E07C13EA1676DBFA6
:101DB0006F92BF3E93B26DBF4A1DBE3EF2FC6DBF37
:101DC000AFA7BC3EBE466EBFA031BB3EF88F6EBF14
:101DD0001EBBB93E9ED86EBF2A44B83EB0206FBF2E
:101DE000C3CCB63E30686FBFEC54B53E1BAF6FBF7F
:101DF000A5DCB33E73F56FBFEF63B23E373B70BFF8
:101E0000CBEAB03E668070BF3A71AF3E02C570BF8C
:101E10003CF7AD3E080971BFD47CAC3E7A4C71BF33
:101E20000102AB3E578F71BFC486A93E9FD171BFDF
:101E30001F0BA83E521372BF128FA63E705472BF82
:101E40009F12A53EF89472BFC595A33EEBD472BF16
:101E50008718A23E471473BFE59AA03E0E5373BF86
:101E6000DF1C9F3E3F9173BF789E9D3ED9CE73BFCE
:101E7000AF1F9C3EDD0B74BF86A09A3E4B4874BFDB
:101E8000FE20993E228474BF17A1973E62BF74BFA3
:101E9000D220963E0BFA74BF31A0943E1D3475BF1C
:101EA000351F933E976D75BFDD9D913E7BA675BF37
:101EB0002C1C903EC6DE75BF229A8E3E7A1676BFE7
:101EC000C0178D3E974D76BF07958B3E1B8476BF1E
:101ED000F8118A3E07BA76BF938E883E5BEF76BFD5
:101EE000DA0A873E172477BFCE86853E3A5877BFF9
:101EF0007002843EC58B77BFC07D823EB7BE77BF80
:101F0000C0F8803E10F177BFE1E67E3ED12278BF77
:101F1000A4DB7B3EF85378BFCCCF783E868478BF75
:101F20005AC3753E7BB478BF51B6723ED6E378BFD4
:101F3000B2A86F3E981279BF7F9A6C3EC04079BFBD
:101F4000BA8B693E4E6E79BF667C663E439B79BF15
:101F5000836C633E9DC779BF135C603E5EF379BFBF
:101F60001A4B5D3E841E7ABF97395A3E10497ABF9C
:101F70008F27573E02737ABF0115543E599C7ABF92
:101F8000F101513E16C57ABF60EE4D3E37ED7ABF86
:101F90004FDA4A3EBE147BBFC2C5473EAB3B7BBF58
:101FA000B9B0443EFC617BBF379B413EB2877BBFEB
:101FB0003E853E3ECDAC7BBFCF6E3B3E4DD17BBF21
:101FC000EC57383E31F57BBF9840353E7A187CBFE0
:101FD000D428323E283B7CBFA2102F3E3A5D7CBF06
:101FE00004F82B3EB07E7CBFFCDE283E8A9F7CBF7F
:101FF0008CC5253EC9BF7CBFB6AB223E6CDF7CBF23
:102000007B911F3E73FE7CBFDE761C3EDD1C7DBFD8
:10201000E05B193EAC3A7DBF8340163EDE577DBF84
:10202000CA24133E74747DBFB708103E6E907DBF06
:102030004AEC0C3ECCAB7DBF86CF093E8CC67DBF43
:102040006EB2063EB1E07DBF0295033E38FA7DBF19
:102050004577003E24137EBF73B2FA3D722B7EBFDC
:10206000C075F43D23437EBF7638EE3D385A7EBFBF
:102070009AFAE73DB0707EBF2EBCE13D8B867EBFF5
:10208000377DDB3DC99B7EBFB93DD53D69B07EBF85
:10209000B7FDCE3D6DC47EBF36BDC83DD4D77EBF33
:1020A000397CC23D9DEA7EBFC33ABC3DC9FC7EBFC0
:1020B000DAF8B53D580E7FBF80B6AF3D491F7FBFF0
:1020C000BA73A93D9D2F7FBF8C30A33D543F7FBF86
:1020D000F9EC9C3D6D4E7FBF05A9963DE95C7FBF45
:1020E000B464903DC76A7FBF0A208A3D08787FBFED
:1020F0000ADB833DAB847FBF742B7B3DB1907FBFF8
:1021000038A06E3D189C7FBF6814623DE3A67FBF78
:102110000E88553D0FB17FBF2FFB483D9EBA7FBF54
:10212000D56D3C3D8FC37FBF07E02F3DE2CB7FBF26
:10213000CC51233D98D37FBF2CC3163DAFDA7FBF70
:102140002F340A3D29E17FBFB949FB3C05E77FBF3A
:102150007B2AE23C43EC7FBFB00AC93CE3F07FBF7F
:1021600069EAAF3CE6F47FBFB6C9963C4AF87FBF48
:102170004B517B3C11FB7FBF900E493C39FD7FBF2B
:1021800059CB163CC4FE7FBF890FC93BB1FF7FBF4F
:10219000C70F493B000080BF00000000B1FF7FBFB8
:1021A000C70F49BBC4FE7FBF890FC9BB39FD7FBFC5
:1021B00059CB16BC11FB7FBF900E49BC4AF87FBFBC
:1021C0004B517BBCE6F47FBFB6C996BCE3F07FBF42
:1021D00069EAAFBC43EC7FBFB00AC9BC05E77FBF6B
:1021E0007B2AE2BC29E17FBFB949FBBCAFDA7FBFE4
:1021F0002F340ABD98D37FBF2CC316BDE2CB7FBF5F
:10220000CC5123BD8FC37FBF07E02FBD9EBA7FBFD8
:10221000D56D3CBD0FB17FBF2FFB48BDE3A67FBF8F
:102220000E8855BD189C7FBF681462BDB1907FBFFA
:1022300038A06EBDAB847FBF742B7BBD08787FBF99
:102240000ADB83BDC76A7FBF0A208ABDE95C7FBF06
:10225000B46490BD6D4E7FBF05A996BD543F7FBF4E
:10226000F9EC9CBD9D2F7FBF8C30A3BD491F7FBF64
:10227000BA73A9BD580E7FBF80B6AFBDC9FC7EBF83
:10228000DAF8B5BD9DEA7EBFC33ABCBDD4D77EBFE8
:10229000397CC2BD6DC47EBF36BDC8BD69B07EBFCE
:1022A000B7FDCEBDC99B7EBFB93DD5BD8B867EBF78
:1022B000377DDBBDB0707EBF2EBCE1BD385A7EBF1E
:1022C0009AFAE7BD23437EBF7638EEBD722B7EBF00
:1022D000C075F4BD24137EBF73B2FABD38FA7DBF5A
:1022E000457700BEB1E07DBF029503BE8CC67DBFC1
:1022F0006EB206BECCAB7DBF86CF09BE6E907DBFF1
:102300004AEC0CBE74747DBFB70810BEDE577DBFAB
:10231000CA2413BEAC3A7DBF834016BEDD1C7DBF10
:10232000E05B19BE73FE7CBFDE761CBE6CDF7CBF3B
:102330007B911FBEC9BF7CBFB6AB22BE8A9F7CBF4C
:102340008CC525BEB07E7CBFFCDE28BE3A5D7CBF5E
:1023500004F82BBE283B7CBFA2102FBE7A187CBF8E
:10236000D42832BE31F57BBF984035BE4DD17BBFFE
:10237000EC5738BECDAC7BBFCF6E3BBEB2877BBFC8
:102380003E853EBEFC617BBF379B41BEAB3B7BBF06
:10239000B9B044BEBE147BBFC2C547BE37ED7ABFDD
:1023A0004FDA4ABE16C57ABF60EE4DBE599C7ABF61
:1023B000F10151BE02737ABF011554BE10497ABFB4
:1023C0008F2757BE841E7ABF97395ABE5EF379BFF6
:1023D0001A4B5DBE9DC779BF135C60BE439B79BF3E
:1023E000836C63BE4E6E79BF667C66BEC04079BFAB
:1023F000BA8B69BE981279BF7F9A6CBED6E378BF5C
:10240000B2A86FBE7BB478BF51B672BE868478BF67
:102410005AC375BEF85378BFCCCF78BED12278BFEF
:10242000A4DB7BBE10F177BFE1E67EBEB7BE77BF0F
:10243000C0F880BEC58B77BFC07D82BE3A5877BFDB
:10244000700284BE172477BFCE8685BE5BEF76BF51
:10245000DA0A87BE07BA76BF938E88BE1B8476BF22
:10246000F8118ABE974D76BF07958BBE7A1676BF58
:10247000C0178DBEC6DE75BF229A8EBE7BA675BF05
:102480002C1C90BE976D75BFDD9D91BE1D3475BF30
:10249000351F93BE0BFA74BF31A094BE62BF74BFE8
:1024A000D22096BE228474BF17A197BE4B4874BF3A
:1024B000FE2099BEDD0B74BF86A09ABED9CE73BF35
:1024C000AF1F9CBE3F9173BF789E9DBE0E5373BFDE
:1024D000DF1C9FBE471473BFE59AA0BEEBD472BF4A
:1024E0008718A2BEF89472BFC595A3BE705472BF80
:1024F0009F12A5BE521372BF128FA6BE9FD171BF8D
:102500001F0BA8BE578F71BFC486A9BE7A4C71BF7E
:102510000102ABBE080971BFD47CACBE02C570BF5E
:102520003CF7ADBE668070BF3A71AFBE373B70BF3F
:10253000CBEAB0BE73F56FBFEF63B2BE1BAF6FBF28
:10254000A5DCB3BE30686FBFEC54B5BEB0206FBF22
:10255000C3CCB6BE9ED86EBF2A44B8BEF88F6EBF3D
:102560001EBBB9BEBE466EBFA031BBBEF2FC6DBF86
:10257000AFA7BCBE93B26DBF4A1DBEBEA1676DBF03
:102580006F92BFBE1D1C6DBF1E07C1BE07D06CBFC2
:10259000557BC2BE5E836CBF15EFC3BE24366CBFD5
:1025A0005C62C5BE58E86BBF29D5C6BEFB996BBF40
:1025B0007C47C8BE0C4B6BBF53B9C9BE8CFB6ABF0E
:1025C000AE2ACBBE7BAB6ABF8B9BCCBED95A6ABF4F
:1025D000EA0BCEBEA7096ABFCA7BCFBEE4B769BF0C
:1025E0002AEBD0BE916569BF095AD2BEAE1269BF4F
:1025F00067C8D3BE3CBF68BF4136D5BE396B68BF24
:1026000099A3D6BEA81668BF6B10D8BE87C167BF96
:10261000B97CD9BED86B67BF80E8DABE991567BFB1
:10262000C153DCBECCBE66BF79BEDDBE716766BF7E
:10263000A928DFBE880F66BF4F92E0BE10B765BF06
:102640006AFBE1BE0B5E65BFFA63E3BE790465BF5A
:10265000FECBE4BE59AA64BF7533E6BEAC4F64BF7F
:102660005D9AE7BE73F463BFB700E9BEAC9863BF81
:102670008166EABE5A3C63BFBBCBEBBE7BDF62BF69
:102680006330EDBE108262BF7994EEBE1A2462BF41
:10269000FBF7EFBE98C561BFEA5AF1BE8A6661BF1B
:1026A00043BDF2BEF20661BF071FF4BECFA660BFF6
:1026B0003580F5BE214660BFCBE0F6BEE9E45FBFE2
:1026C000C840F8BE27835FBF2DA0F9BEDB205FBFE7
:1026D000F7FEFABE05BE5EBF275DFCBEA65A5EBF12
:1026E000BBBAFDBEBEF65DBFB217FFBE4D925DBF69
:1026F000063A00BF532D5DBFE4E700BFD1C75CBF02
:10270000739501BFC7615CBFB14202BF34FB5BBFC1
:102710009FEF02BF1A945BBF3D9C03BF792C5BBF48
:10272000894804BF50C45ABF84F404BFA05B5ABF99
:102730002CA005BF6AF259BF824B06BFAD8859BFB6
:1027400086F606BF6A1E59BF36A107BFA1B358BFA0
:10275000924B08BF534858BF9BF508BF7FDC57BF5B
:102760004E9F09BF267057BFAD480ABF480357BFE9
:10277000B7F10ABFE59556BF6B9A0BBFFE2756BF50
:10278000C9420CBF93B955BFD0EA0CBFA44A55BF8C
:1027900081920DBF31DB54BFDA390EBF3B6B54BFA2
:1027A000DBE00EBFC3FA53BF84870FBFC78953BF97
:1027B000D52D10BF491853BFCDD310BF49A652BF66
:1027C0006B7911BFC63352BFB01E12BFC2C051BF1A
:1027D0009AC312BF3D4D51BF2A6813BF37D950BFAE
:1027E0005F0C14BFAF6450BF39B014BFA8EF4FBF28
:1027F000B75315BF1F7A4FBFD9F615BF17044FBF88
:102800009F9916BF908D4EBF073C17BF89164EBFCC
:1028100012DE17BF029F4DBFC07F18BFFD264DBF00
:102820000F2119BF79AE4CBF00C219BF78354CBF1C
:1028300093621ABFF8BB4BBFC6021BBFFA414BBF26
:1028400099A21BBF7FC74ABF0C421CBF874C4ABF1F
:102850001FE11CBF12D149BFD17F1DBF215549BF08
:10286000221E1EBFB3D848BF12BC1EBFCA5B48BFE2
:102870009F591FBF65DE47BFCBF61FBF856047BFAF
:10288000939320BF2AE246BFF92F21BF546346BF6E
:10289000FBCB21BF03E445BF996722BF396445BF25
:1028A000D30223BFF5E344BFA99D23BF376344BFD1
:1028B0001A3824BF00E243BF25D224BF516043BF72
:1028C000CB6B25BF29DE42BF0A0526BF895B42BF0D
:1028D000E39D26BF70D841BF563627BFE15441BFA4
:1028E00061CE27BFDAD040BF056628BF5C4C40BF31
:1028F00041FD28BF67C73FBF159429BFFC413FBFBB
:10290000802A2ABF1BBC3EBF82C02ABFC5353EBF3E
:102910001B562BBFF9AE3DBF4AEB2BBFB8273DBFBF
:102920000F802CBF03A03CBF69142DBFD9173CBF3B
:1029300059A82DBF3B8F3BBFDE3B2EBF29063BBFB7
:10294000F7CE2EBFA47C3ABFA5612FBFACF239BF32
:10295000E6F32FBF426839BFBB8530BF65DD38BFA6
:10296000221731BF165238BF1DA831BF55C637BF19
:10297000AA3832BF233A37BFC9C832BF7FAD36BF8E
:102980007A5833BF6C2036BFBCE733BFE79235BF00
:102990008F7634BFF30435BFF30435BF8F7634BF71
:1029A000E79235BFBCE733BF6C2036BF7A5833BFE0
:1029B0007FAD36BFC9C832BF233A37BFAA3832BF4E
:1029C00055C637BF1DA831BF165238BF221731BFB9
:1029D00065DD38BFBB8530BF426839BFE6F32FBF26
:1029E000ACF239BFA5612FBFA47C3ABFF7CE2EBF92
:1029F00029063BBFDE3B2EBF3B8F3BBF59A82DBFF7
:102A0000D9173CBF69142DBF03A03CBF0F802CBF5A
:102A1000B8273DBF4AEB2BBFF9AE3DBF1B562BBFBE
:102A2000C5353EBF82C02ABF1BBC3EBF802A2ABF1D
:102A3000FC413FBF159429BF67C73FBF41FD28BF79
:102A40005C4C40BF056628BFDAD040BF61CE27BFCF
:102A5000E15441BF563627BF70D841BFE39D26BF22
:102A6000895B42BF0A0526BF29DE42BFCB6B25BF6B
:102A7000516043BF25D224BF00E243BF1A3824BFB0
:102A8000376344BFA99D23BFF5E344BFD30223BFEF
:102A9000396445BF996722BF03E445BFFBCB21BF23
:102AA000546346BFF92F21BF2AE246BF939320BF4C
:102AB000856047BFCBF61FBF65DE47BF9F591FBF6D
:102AC000CA5B48BF12BC1EBFB3D848BF221E1EBF80
:102AD000215549BFD17F1DBF12D149BF1FE11CBF86
:102AE000874C4ABF0C421CBF7FC74ABF99A21BBF7D
:102AF000FA414BBFC6021BBFF8BB4BBF93621ABF64
:102B000078354CBF00C219BF79AE4CBF0F2119BF39
:102B1000FD264DBFC07F18BF029F4DBF12DE17BFFD
:102B200089164EBF073C17BF908D4EBF9F9916BFA9
:102B300017044FBFD9F615BF1F7A4FBFB75315BF44
:102B4000A8EF4FBF39B014BFAF6450BF5F0C14BFC4
:102B500037D950BF2A6813BF3D4D51BF9AC312BF2A
:102B6000C2C051BFB01E12BFC63352BF6B7911BF76
:102B700049A652BFCDD310BF491853BFD52D10BFA2
:102B8000C78953BF84870FBFC3FA53BFDBE00EBFB3
:102B90003B6B54BFDA390EBF31DB54BF81920DBF9E
:102BA000A44A55BFD0EA0CBF93B955BFC9420CBF68
:102BB000FE2756BF6B9A0BBFE59556BFB7F10ABF0C
:102BC000480357BFAD480ABF267057BF4E9F09BF85
:102BD0007FDC57BF9BF508BF534858BF924B08BFD7
:102BE000A1B358BF36A107BF6A1E59BF86F606BFFC
:102BF000AD8859BF824B06BF6AF259BF2CA005BFF2
:102C0000A05B5ABF84F404BF50C45ABF894804BFB4
:102C1000792C5BBF3D9C03BF1A945BBF9FEF02BF43
:102C200034FB5BBFB14202BFC7615CBF739501BF9C
:102C3000D1C75CBFE4E700BF532D5DBF063A00BFBC
:102C40004D925DBFB217FFBEBEF65DBFBBBAFDBE03
:102C5000A65A5EBF275DFCBE05BE5EBFF7FEFABE8C
:102C6000DB205FBF2DA0F9BE27835FBFC840F8BE41
:102C7000E9E45FBFCBE0F6BE214660BF3580F5BE1C
:102C8000CFA660BF071FF4BEF20661BF43BDF2BE10
:102C90008A6661BFEA5AF1BE98C561BFFBF7EFBE15
:102CA0001A2462BF7994EEBE108262BF6330EDBE1B
:102CB0007BDF62BFBBCBEBBE5A3C63BF8166EABE23
:102CC000AC9863BFB700E9BE73F463BF5D9AE7BE1B
:102CD000AC4F64BF7533E6BE59AA64BFFECBE4BEF9
:102CE000790465BFFA63E3BE0B5E65BF6AFBE1BEB4
:102CF00010B765BF4F92E0BE880F66BFA928DFBE40
:102D0000716766BF79BEDDBECCBE66BFC153DCBE97
:102D1000991567BF80E8DABED86B67BFB97CD9BEAA
:102D200087C167BF6B10D8BEA81668BF99A3D6BE6F
:102D3000396B68BF4136D5BE3CBF68BF67C8D3BEDC
:102D4000AE1269BF095AD2BE916569BF2AEBD0BEE7
:102D5000E4B769BFCA7BCFBEA7096ABFEA0BCEBE84
:102D6000D95A6ABF8B9BCCBE7BAB6ABFAE2ACBBEA7
:102D70008CFB6ABF53B9C9BE0C4B6BBF7C47C8BE46
:102D8000FB996BBF29D5C6BE58E86BBF5C62C5BE58
:102D900024366CBF15EFC3BE5E836CBF557BC2BECD
:102DA00007D06CBF1E07C1BE1D1C6DBF6F92BFBE9A
:102DB000A1676DBF4A1DBEBE93B26DBFAFA7BCBEBB
:102DC000F2FC6DBFA031BBBEBE466EBF1EBBB9BE1E
:102DD000F88F6EBF2A44B8BE9ED86EBFC3CCB6BEB5
:102DE000B0206FBFEC54B5BE30686FBFA5DCB3BE7A
:102DF0001BAF6FBFEF63B2BE73F56FBFCBEAB0BE60
:102E0000373B70BF3A71AFBE668070BF3CF7ADBE56
:102E100002C570BFD47CACBE080971BF0102ABBE55
:102E20007A4C71BFC486A9BE578F71BF1F0BA8BE55
:102E30009FD171BF128FA6BE521372BF9F12A5BE43
:102E4000705472BFC595A3BEF89472BF8718A2BE16
:102E5000EBD472BFE59AA0BE471473BFDF1C9FBEC0
:102E60000E5373BF789E9DBE3F9173BFAF1F9CBE34
:102E7000D9CE73BF86A09ABEDD0B74BFFE2099BE6B
:102E80004B4874BF17A197BE228474BFD22096BE50
:102E900062BF74BF31A094BE0BFA74BF351F93BEDE
:102EA0001D3475BFDD9D91BE976D75BF2C1C90BE06
:102EB0007BA675BF229A8EBEC6DE75BFC0178DBEBB
:102EC0007A1676BF07958BBE974D76BFF8118ABEEE
:102ED0001B8476BF938E88BE07BA76BFDA0A87BE98
:102EE0005BEF76BFCE8685BE172477BF700284BEA7
:102EF0003A5877BFC07D82BEC58B77BFC0F880BE11
:102F0000B7BE77BFE1E67EBE10F177BFA4DB7BBE24
:102F1000D12278BFCCCF78BEF85378BF5AC375BEE4
:102F2000868478BF51B672BE7BB478BFB2A86FBE3C
:102F3000D6E378BF7F9A6CBE981279BFBA8B69BE10
:102F4000C04079BF667C66BE4E6E79BF836C63BE3F
:102F5000439B79BF135C60BE9DC779BF1A4B5DBEB2
:102F60005EF379BF97395ABE841E7ABF8F2757BE4A
:102F700010497ABF011554BE02737ABFF10151BEE8
:102F8000599C7ABF60EE4DBE16C57ABF4FDA4ABE75
:102F900037ED7ABFC2C547BEBE147BBFB9B044BED1
:102FA000AB3B7BBF379B41BEFC617BBF3E853EBEDA
:102FB000B2877BBFCF6E3BBECDAC7BBFEC5738BE7C
:102FC0004DD17BBF984035BE31F57BBFD42832BE92
:102FD0007A187CBFA2102FBE283B7CBF04F82BBE02
:102FE0003A5D7CBFFCDE28BEB07E7CBF8CC525BEB2
:102FF0008A9F7CBFB6AB22BEC9BF7CBF7B911FBE80
:103000006CDF7CBFDE761CBE73FE7CBFE05B19BE4E
:10301000DD1C7DBF834016BEAC3A7DBFCA2413BE03
:10302000DE577DBFB70810BE74747DBF4AEC0CBE7E
:103030006E907DBF86CF09BECCAB7DBF6EB206BEA3
:103040008CC67DBF029503BEB1E07DBF457700BE53
:1030500038FA7DBF73B2FABD24137EBFC075F4BDCC
:10306000722B7EBF7638EEBD23437EBF9AFAE7BD52
:10307000385A7EBF2EBCE1BDB0707EBF377DDBBD50
:103080008B867EBFB93DD5BDC99B7EBFB7FDCEBD8A
:1030900069B07EBF36BDC8BD6DC47EBF397CC2BDC0
:1030A000D4D77EBFC33ABCBD9DEA7EBFDAF8B5BDBA
:1030B000C9FC7EBF80B6AFBD580E7FBFBA73A9BD35
:1030C000491F7FBF8C30A3BD9D2F7FBFF9EC9CBDF6
:1030D000543F7FBF05A996BD6D4E7FBFB46490BDC0
:1030E000E95C7FBF0A208ABDC76A7FBF0ADB83BD58
:1030F00008787FBF742B7BBDAB847FBF38A06EBDCB
:10310000B1907FBF681462BD189C7FBF0E8855BD0B
:10311000E3A67FBF2FFB48BD0FB17FBFD56D3CBD80
:103120009EBA7FBF07E02FBD8FC37FBFCC5123BDA9
:10313000E2CB7FBF2CC316BD98D37FBF2F340ABD0F
:10314000AFDA7FBFB949FBBC29E17FBF7B2AE2BC74
:1031500005E77FBFB00AC9BC43EC7FBF69EAAFBCDB
:10316000E3F07FBFB6C996BCE6F47FBF4B517BBC92
:103170004AF87FBF900E49BC11FB7FBF59CB16BCEC
:1031800039FD7FBF890FC9BBC4FE7FBFC70F49BBD5
:10319000B1FF7FBF00000080000080BFC70F493B28
:1031A000B1FF7FBF890FC93BC4FE7FBF59CB163C1F
:1031B00039FD7FBF900E493C11FB7FBF4B517B3CDB
:1031C0004AF87FBFB6C9963CE6F47FBF69EAAF3CD8
:1031D000E3F07FBFB00AC93C43EC7FBF7B2AE23CEF
:1031E00005E77FBFB949FB3C29E17FBF2F340A3D8A
:1031F000AFDA7FBF2CC3163D98D37FBFCC51233DA0
:10320000E2CB7FBF07E02F3D8FC37FBFD56D3C3D35
:103210009EBA7FBF2FFB483D0FB17FBF0E88553D43
:10322000E3A67FBF6814623D189C7FBF38A06E3D47
:10323000B1907FBF742B7B3DAB847FBF0ADB833DA6
:1032400008787FBF0A208A3DC76A7FBFB464903D7B
:10325000E95C7FBF05A9963D6D4E7FBFF9EC9C3DB3
:10326000543F7FBF8C30A33D9D2F7FBFBA73A93DD4
:10327000491F7FBF80B6AF3D580E7FBFDAF8B53D1E
:10328000C9FC7EBFC33ABC3D9DEA7EBF397CC23DCE
:10329000D4D77EBF36BDC83D6DC47EBFB7FDCE3D21
:1032A00069B07EBFB93DD53DC99B7EBF377DDB3D53
:1032B0008B867EBF2EBCE13DB0707EBF9AFAE73DA3
:1032C000385A7EBF7638EE3D23437EBFC075F43D4D
:1032D000722B7EBF73B2FA3D24137EBF4577003E4A
:1032E00038FA7DBF0295033EB1E07DBF6EB2063E67
:1032F0008CC67DBF86CF093ECCAB7DBF4AEC0C3E71
:103300006E907DBFB708103E74747DBFCA24133E13
:10331000DE577DBF8340163EAC3A7DBFE05B193E71
:10332000DD1C7DBFDE761C3E73FE7CBF7B911F3EA5
:103330006CDF7CBFB6AB223EC9BF7CBF8CC5253ECF
:103340008A9F7CBFFCDE283EB07E7CBF04F82B3E0B
:103350003A5D7CBFA2102F3E283B7CBFD428323E72
:103360007A187CBF9840353E31F57BBFEC57383E2C
:103370004DD17BBFCF6E3B3ECDAC7BBF3E853E3E4D
:10338000B2877BBF379B413EFC617BBFB9B0443EF7
:10339000AB3B7BBFC2C5473EBE147BBF4FDA4A3E44
:1033A00037ED7ABF60EE4D3E16C57ABFF101513E52
:1033B000599C7ABF0115543E02737ABF8F27573E3E
:1033C00010497ABF97395A3E841E7ABF1A4B5D3E28
:1033D0005EF379BF135C603E9DC779BF836C633E2B
:1033E000439B79BF667C663E4E6E79BFBA8B693E61
:1033F000C04079BF7F9A6C3E981279BFB2A86F3EE9
:10340000D6E378BF51B6723E7BB478BF5AC3753EDF
:10341000868478BFCCCF783EF85378BFA4DB7B3E60
:10342000D12278BFE1E67E3E10F177BFC0F8803E42
:10343000B7BE77BFC07D823EC58B77BF7002843E2A
:103440003A5877BFCE86853E172477BFDA0A873E83
:103450005BEF76BF938E883E07BA76BFF8118A3E3F
:103460001B8476BF07958B3E974D76BFC0178D3E68
:103470007A1676BF229A8E3EC6DE75BF2C1C903E11
:103480007BA675BFDD9D913E976D75BF351F933E41
:103490001D3475BF31A0943E0BFA74BFD220963E06
:1034A00062BF74BF17A1973E228474BFFE20993E6D
:1034B0004B4874BF86A09A3EDD0B74BFAF1F9C3E85
:1034C000D9CE73BF789E9D3E3F9173BFDF1C9F3E58
:1034D0000E5373BFE59AA03E471473BF8718A23EF0
:1034E000EBD472BFC595A33EF89472BF9F12A53E60
:1034F000705472BF128FA63E521372BF1F0BA83EAC
:103500009FD171BFC486A93E578F71BF0102AB3EE8
:103510007A4C71BFD47CAC3E080971BF3CF7AD3E1C
:1035200002C570BF3A71AF3E668070BFCBEAB03E55
:10353000373B70BFEF63B23E73F56FBFA5DCB33EA0
:103540001BAF6FBFEC54B53E30686FBFC3CCB63E07
:10355000B0206FBF2A44B83E9ED86EBF1EBBB93E96
:10356000F88F6EBFA031BB3EBE466EBFAFA7BC3E5C
:10357000F2FC6DBF4A1DBE3E93B26DBF6F92BF3E5F
:10358000A1676DBF1E07C13E1D1C6DBF557BC23EAE
:1035900007D06CBF15EFC33E5E836CBF5C62C53E57
:1035A00024366CBF29D5C63E58E86BBF7C47C83E61
:1035B000FB996BBF53B9C93E0C4B6BBFAE2ACB3ED8
:1035C0008CFB6ABF8B9BCC3E7BAB6ABFEA0BCE3ECB
:1035D000D95A6ABFCA7BCF3EA7096ABF2AEBD03E41
:1035E000E4B769BF095AD23E916569BF67C8D33E47
:1035F000AE1269BF4136D53E3CBF68BF99A3D63EE7
:10360000396B68BF6B10D83EA81668BFB97CD93E2D
:1036100087C167BF80E8DA3ED86B67BFC153DC3E25
:10362000991567BF79BEDD3ECCBE66BFA928DF3ED7
:10363000716766BF4F92E03E880F66BF6AFBE13E4E
:1036400010B765BFFA63E33E0B5E65BFFECBE43E99
:10365000790465BF7533E63E59AA64BF5D9AE73EBB
:10366000AC4F64BFB700E93E73F463BF8166EA3EC6
:10367000AC9863BFBBCBEB3E5A3C63BF6330ED3EBF
:103680007BDF62BF7994EE3E108262BFFBF7EF3EB4
:103690001A2462BFEA5AF13E98C561BF43BDF23EAB
:1036A0008A6661BF071FF43EF20661BF3580F53EB2
:1036B000CFA660BFCBE0F63E214660BFC840F83ED3
:1036C000E9E45FBF2DA0F93E27835FBFF7FEFA3E16
:1036D000DB205FBF275DFC3E05BE5EBFBBBAFD3E83
:1036E000A65A5EBFB217FF3EBEF65DBF063A003F68
:1036F0004D925DBFE4E7003F532D5DBF7395013FE1
:10370000D1C75CBFB142023FC7615CBF9FEF023FC0
:1037100034FB5BBF3D9C033F1A945BBF8948043F69
:10372000792C5BBF84F4043F50C45ABF2CA0053FE2
:10373000A05B5ABF824B063F6AF259BF86F6063F2E
:10374000AD8859BF36A1073F6A1E59BF924B083F4B
:10375000A1B358BF9BF5083F534858BF4E9F093F40
:103760007FDC57BFAD480A3F267057BFB7F10A3F0D
:10377000480357BF6B9A0B3FE59556BFC9420C3FB4
:10378000FE2756BFD0EA0C3F93B955BF81920D3F3B
:10379000A44A55BFDA390E3F31DB54BFDBE00E3FA0
:1037A0003B6B54BF84870F3FC3FA53BFD52D103FE7
:1037B000C78953BFCDD3103F491853BF6B79113F11
:1037C00049A652BFB01E123FC63352BF9AC3123F22
:1037D000C2C051BF2A68133F3D4D51BF5F0C143F1B
:1037E00037D950BF39B0143FAF6450BFB753153FFE
:1037F000A8EF4FBFD9F6153F1F7A4FBF9F99163FCD
:1038000017044FBF073C173F908D4EBF12DE173F86
:1038100089164EBFC07F183F029F4DBF0F21193F31
:10382000FD264DBF00C2193F79AE4CBF93621A3FCF
:1038300078354CBFC6021B3FF8BB4BBF99A21B3F5C
:10384000FA414BBF0C421C3F7FC74ABF1FE11C3FE0
:10385000874C4ABFD17F1D3F12D149BF221E1E3F58
:10386000215549BF12BC1E3FB3D848BF9F591F3FC7
:10387000CA5B48BFCBF61F3F65DE47BF9393203F2F
:10388000856047BFF92F213F2AE246BFFBCB213F8E
:10389000546346BF9967223F03E445BFD302233FE9
:1038A000396445BFA99D233FF5E344BF1A38243F3F
:1038B000376344BF25D2243F00E243BFCB6B253F93
:1038C000516043BF0A05263F29DE42BFE39D263FE4
:1038D000895B42BF5636273F70D841BF61CE273F34
:1038E000E15441BF0566283FDAD040BF41FD283F83
:1038F0005C4C40BF1594293F67C73FBF802A2A3FD1
:10390000FC413FBF82C02A3F1BBC3EBF1B562B3F22
:10391000C5353EBF4AEB2B3FF9AE3DBF0F802C3F74
:10392000B8273DBF69142D3F03A03CBF59A82D3FC8
:10393000D9173CBFDE3B2E3F3B8F3BBFF7CE2E3F20
:1039400029063BBFA5612F3FA47C3ABFE6F32F3F7A
:10395000ACF239BFBB85303F426839BF2217313FD7
:1039600065DD38BF1DA8313F165238BFAA38323F37
:1039700055C637BFC9C8323F233A37BF7A58333F9D
:103980007FAD36BFBCE7333F6C2036BF8F76343F08
:10399000E79235BFF304353FF30435BFE792353F77
:1039A0008F7634BF6C20363FBCE733BF7FAD363FE8
:1039B0007A5833BF233A373FC9C832BF55C6373F5D
:1039C000AA3832BF1652383F1DA831BF65DD383FD7
:1039D000221731BF4268393FBB8530BFACF2393F57
:1039E000E6F32FBFA47C3A3FA5612FBF29063B3FDA
:1039F000F7CE2EBF3B8F3B3FDE3B2EBFD9173C3F60
:103A000059A82DBF03A03C3F69142DBFB8273D3FE7
:103A10000F802CBFF9AE3D3F4AEB2BBFC5353E3F73
:103A20001B562BBF1BBC3E3F82C02ABFFC413F3F01
:103A3000802A2ABF67C73F3F159429BF5C4C403F8F
:103A400041FD28BFDAD0403F056628BFE154413F21
:103A500061CE27BF70D8413F563627BF895B423FB2
:103A6000E39D26BF29DE423F0A0526BF5160433F42
:103A7000CB6B25BF00E2433F25D224BF3763443FD1
:103A80001A3824BFF5E3443FA99D23BF3964453F5D
:103A9000D30223BF03E4453F996722BF5463463FE7
:103AA000FBCB21BF2AE2463FF92F21BF8560473F6C
:103AB000939320BF65DE473FCBF61FBFCA5B483FED
:103AC0009F591FBFB3D8483F12BC1EBF2155493F65
:103AD000221E1EBF12D1493FD17F1DBF874C4A3FD6
:103AE0001FE11CBF7FC74A3F0C421CBFFA414B3F3E
:103AF00099A21BBFF8BB4B3FC6021BBF78354C3F9A
:103B000093621ABF79AE4C3F00C219BFFD264D3FEC
:103B10000F2119BF029F4D3FC07F18BF89164E3F2E
:103B200012DE17BF908D4E3F073C17BF17044F3F63
:103B30009F9916BF1F7A4F3FD9F615BFA8EF4F3F89
:103B4000B75315BFAF64503F39B014BF37D9503F9A
:103B50005F0C14BF3D4D513F2A6813BFC2C0513F97
:103B60009AC312BFC633523FB01E12BF49A6523F7E
:103B70006B7911BF4918533FCDD310BFC789533F4D
:103B8000D52D10BFC3FA533F84870FBF3B6B543F03
:103B9000DBE00EBF31DB543FDA390EBFA44A553F9C
:103BA00081920DBF93B9553FD0EA0CBFFE27563F17
:103BB000C9420CBFE595563F6B9A0BBF4803573F70
:103BC000B7F10ABF2670573FAD480ABF7FDC573FA9
:103BD0004E9F09BF5348583F9BF508BFA1B3583FBC
:103BE000924B08BF6A1E593F36A107BFAD88593FA7
:103BF00086F606BF6AF2593F824B06BFA05B5A3F6A
:103C00002CA005BF50C45A3F84F404BF792C5B3FFD
:103C1000894804BF1A945B3F3D9C03BF34FB5B3F64
:103C20009FEF02BFC7615C3FB14202BFD1C75C3F9B
:103C3000739501BF532D5D3FE4E700BF4D925D3F9B
:103C4000063A00BFBEF65D3FB217FFBEA65A5E3F02
:103C5000BBBAFDBE05BE5E3F275DFCBEDB205F3FFD
:103C6000F7FEFABE27835F3F2DA0F9BEE9E45F3F70
:103C7000C840F8BE2146603FCBE0F6BECFA6603F0D
:103C80003580F5BEF206613F071FF4BE8A66613FCC
:103C900043BDF2BE98C5613FEA5AF1BE1A24623FA5
:103CA000FBF7EFBE1082623F7994EEBE7BDF623F8E
:103CB0006330EDBE5A3C633FBBCBEBBEAC98633F79
:103CC0008166EABE73F4633FB700E9BEAC4F643F60
:103CD0005D9AE7BE59AA643F7533E6BE7904653F35
:103CE000FECBE4BE0B5E653FFA63E3BE10B7653FF3
:103CF0006AFBE1BE880F663F4F92E0BE7167663F88
:103D0000A928DFBECCBE663F79BEDDBE9915673FF0
:103D1000C153DCBED86B673F80E8DABE87C1673F1E
:103D2000B97CD9BEA816683F6B10D8BE396B683F06
:103D300099A3D6BE3CBF683F4136D5BEAE12693F9F
:103D400067C8D3BE9165693F095AD2BEE4B7693FDF
:103D50002AEBD0BEA7096A3FCA7BCFBED95A6A3FB9
:103D6000EA0BCEBE7BAB6A3F8B9BCCBE8CFB6A3F23
:103D7000AE2ACBBE0C4B6B3F53B9C9BEFB996B3F10
:103D80007C47C8BE58E86B3F29D5C6BE24366C3F79
:103D90005C62C5BE5E836C3F15EFC3BE07D06C3F4F
:103DA000557BC2BE1D1C6D3F1E07C1BEA1676D3F86
:103DB0006F92BFBE93B26D3F4A1DBEBEF2FC6D3F17
:103DC000AFA7BCBEBE466E3FA031BBBEF88F6E3FF4
:103DD0001EBBB9BE9ED86E3F2A44B8BEB0206F3F0E
:103DE000C3CCB6BE30686F3FEC54B5BE1BAF6F3F5F
:103DF000A5DCB3BE73F56F3FEF63B2BE373B703FD8
:103E0000CBEAB0BE6680703F3A71AFBE02C5703F6C
:103E10003CF7ADBE0809713FD47CACBE7A4C713F13
:103E20000102ABBE578F713FC486A9BE9FD1713FBF
:103E30001F0BA8BE5213723F128FA6BE7054723F62
:103E40009F12A5BEF894723FC595A3BEEBD4723FF6
:103E50008718A2BE4714733FE59AA0BE0E53733F66
:103E6000DF1C9FBE3F91733F789E9DBED9CE733FAE
:103E7000AF1F9CBEDD0B743F86A09ABE4B48743FBB
:103E8000FE2099BE2284743F17A197BE62BF743F83
:103E9000D22096BE0BFA743F31A094BE1D34753FFC
:103EA000351F93BE976D753FDD9D91BE7BA6753F17
:103EB0002C1C90BEC6DE753F229A8EBE7A16763FC7
:103EC000C0178DBE974D763F07958BBE1B84763FFE
:103ED000F8118ABE07BA763F938E88BE5BEF763FB5
:103EE000DA0A87BE1724773FCE8685BE3A58773FD9
:103EF000700284BEC58B773FC07D82BEB7BE773F60
:103F0000C0F880BE10F1773FE1E67EBED122783F57
:103F1000A4DB7BBEF853783FCCCF78BE8684783F55
:103F20005AC375BE7BB4783F51B672BED6E3783FB4
:103F3000B2A86FBE9812793F7F9A6CBEC040793F9D
:103F4000BA8B69BE4E6E793F667C66BE439B793FF5
:103F5000836C63BE9DC7793F135C60BE5EF3793F9F
:103F60001A4B5DBE841E7A3F97395ABE10497A3F7C
:103F70008F2757BE02737A3F011554BE599C7A3F72
:103F8000F10151BE16C57A3F60EE4DBE37ED7A3F66
:103F90004FDA4ABEBE147B3FC2C547BEAB3B7B3F38
:103FA000B9B044BEFC617B3F379B41BEB2877B3FCB
:103FB0003E853EBECDAC7B3FCF6E3BBE4DD17B3F01
:103FC000EC5738BE31F57B3F984035BE7A187C3FC0
:103FD000D42832BE283B7C3FA2102FBE3A5D7C3FE6
:103FE00004F82BBEB07E7C3FFCDE28BE8A9F7C3F5F
:103FF0008CC525BEC9BF7C3FB6AB22BE6CDF7C3F03
:104000007B911FBE73FE7C3FDE761CBEDD1C7D3FB8
:10401000E05B19BEAC3A7D3F834016BEDE577D3F64
:10402000CA2413BE74747D3FB70810BE6E907D3FE6
:104030004AEC0CBECCAB7D3F86CF09BE8CC67D3F23
:104040006EB206BEB1E07D3F029503BE38FA7D3FF9
:10405000457700BE24137E3F73B2FABD722B7E3FBC
:10406000C075F4BD23437E3F7638EEBD385A7E3F9F
:104070009AFAE7BDB0707E3F2EBCE1BD8B867E3FD5
:10408000377DDBBDC99B7E3FB93DD5BD69B07E3F65
:10409000B7FDCEBD6DC47E3F36BDC8BDD4D77E3F13
:1040A000397CC2BD9DEA7E3FC33ABCBDC9FC7E3FA0
:1040B000DAF8B5BD580E7F3F80B6AFBD491F7F3FD0
:1040C000BA73A9BD9D2F7F3F8C30A3BD543F7F3F66
:1040D000F9EC9CBD6D4E7F3F05A996BDE95C7F3F25
:1040E000B46490BDC76A7F3F0A208ABD08787F3FCD
:1040F0000ADB83BDAB847F3F742B7BBDB1907F3FD8
:1041000038A06EBD189C7F3F681462BDE3A67F3F58
:104110000E8855BD0FB17F3F2FFB48BD9EBA7F3F34
:10412000D56D3CBD8FC37F3F07E02FBDE2CB7F3F06
:10413000CC5123BD98D37F3F2CC316BDAFDA7F3F50
:104140002F340ABD29E17F3FB949FBBC05E77F3F1A
:104150007B2AE2BC43EC7F3FB00AC9BCE3F07F3F5F
:1041600069EAAFBCE6F47F3FB6C996BC4AF87F3F28
:104170004B517BBC11FB7F3F900E49BC39FD7F3F0B
:1041800059CB16BCC4FE7F3F890FC9BBB1FF7F3F2F
:10419000C70F49BB000000000000803FD40FC93AA0
:1041A000ECFF7F3FC70F493BB1FF7F3FC1CB963B41
:1041B0004EFF7F3F890FC93BC4FE7F3F3053FB3B1F
:1041C00013FE7F3F59CB163C39FD7F3F02ED2F3C5C
:1041D00039FC7F3F900E493C11FB7F3F0030623C31
:1041E000C1F97F3F4B517B3C4AF87F3F38398A3CCD
:1041F000ACF67F3FB6C9963CE6F47F3F1C5AA33C21
:10420000F8F27F3F69EAAF3CE3F07F3F9B7ABC3C2A
:10421000A7EE7F3FB00AC93C43EC7F3FA69AD53C4E
:10422000B8E97F3F7B2AE23C05E77F3F2DBAEE3CB1
:104230002BE47F3FB949FB3C29E17F3F90EC033DF4
:1042400000DE7F3F2F340A3DAFDA7F3FB87B103D61
:1042500037D77F3F2CC3163D98D37F3F880A1D3D3B
:10426000D1CF7F3FCC51233DE2CB7F3FF698293D14
:10427000CCC77F3F07E02F3D8FC37F3FFC26363DF5
:104280002ABF7F3FD56D3C3D9EBA7F3F91B4423DF2
:10429000EAB57F3F2FFB483D0FB17F3FAF414F3D18
:1042A0000DAC7F3F0E88553DE3A67F3F4CCE5B3D76
:1042B00091A17F3F6814623D189C7F3F625A683D20
:1042C00078967F3F38A06E3DB1907F3FE9E5743D21
:1042D000C28A7F3F742B7B3DAB847F3F6CB8803DAF
:1042E0006D7E7F3F0ADB833D08787F3F94FD863DEE
:1042F0007B717F3F0A208A3DC76A7F3F6A428D3DBE
:10430000EC637F3FB464903DE95C7F3FE786933D7B
:10431000BF557F3F05A9963D6D4E7F3F0ACB993D26
:10432000F4467F3FF9EC9C3D543F7F3FCF0EA03DCC
:104330008D377F3F8C30A33D9D2F7F3F3052A63D70
:1043400087277F3FBA73A93D491F7F3F2B95AC3D1F
:10435000E4167F3F80B6AF3D580E7F3FBBD7B23DDE
:10436000A4057F3FDAF8B53DC9FC7E3FDD19B93DB4
:10437000C7F37E3FC33ABC3D9DEA7E3F8D5BBF3DA8
:104380004CE17E3F397CC23DD4D77E3FC69CC53DC3
:1043900034CE7E3F36BDC83D6DC47E3F86DDCB3D0D
:1043A0007FBA7E3FB7FDCE3D69B07E3FC81DD23D8E
:1043B0002DA67E3FB93DD53DC99B7E3F895DD83D49
:1043C0003D917E3F377DDB3D8B867E3FC49CDE3D4D
:1043D000B17B7E3F2EBCE13DB0707E3F76DBE43D9D
:1043E00088657E3F9AFAE73D385A7E3F9A19EB3D41
:1043F000C14E7E3F7638EE3D23437E3F2E57F13D42
:104400005E377E3FC075F43D722B7E3F2C94F73DA6
:104410005E1F7E3F73B2FA3D24137E3F92D0FD3D76
:10442000C2067E3F4577003E38FA7D3F2E06023EAB
:1044300088ED7D3F0295033EB1E07D3FC223053EFE
:10444000B2D37D3F6EB2063E8CC67D3F0541083E2D
:1044500040B97D3F86CF093ECCAB7D3FF35D0B3E3F
:10446000309E7D3F4AEC0C3E6E907D3F8B7A0E3E37
:1044700085827D3FB708103E74747D3FCC96113E17
:104480003D667D3FCA24133EDE577D3FB2B2143EE7
:1044900059497D3F8340163EAC3A7D3F3DCE173EA5
:1044A000D82B7D3FE05B193EDD1C7D3F6BE91A3E5A
:1044B000BC0D7D3FDE761C3E73FE7C3F38041E3E05
:1044C00003EF7C3F7B911F3E6CDF7C3FA51E213EAE
:1044D000AECF7C3FB6AB223EC9BF7C3FAD38243E59
:1044E000BDAF7C3F8CC5253E8A9F7C3F5152273E05
:1044F000318F7C3FFCDE283EB07E7C3F8D6B2A3EB8
:10450000086E7C3F04F82B3E3A5D7C3F61842D3E73
:10451000444C7C3FA2102F3E283B7C3FC99C303E40
:10452000E5297C3FD428323E7A187C3FC4B4333E20
:10453000E9067C3F9840353E31F57B3F50CC363E16
:1045400053E37B3FEC57383E4DD17B3F6CE3393E24
:1045500020BF7B3FCF6E3B3ECDAC7B3F15FA3C3E50
:10456000539A7B3F3E853E3EB2877B3F4910403E9B
:10457000EA747B3F379B413EFC617B3F0726433E0D
:10458000E74E7B3FB9B0443EAB3B7B3F4D3B463EA5
:1045900048287B3FC2C5473EBE147B3F1850493E6A
:1045A0000E017B3F4FDA4A3E37ED7A3F67644C3E5F
:1045B0003AD97A3F60EE4D3E16C57A3F38784F3E85
:1045C000CBB07A3FF101513E599C7A3F898B523EE4
:1045D000C1877A3F0115543E02737A3F589E553E7B
:1045E0001C5E7A3F8F27573E10497A3FA4B0583E51
:1045F000DD337A3F97395A3E841E7A3F6AC25B3E6A
:1046000004097A3F1A4B5D3E5EF3793FA8D35E3EC4
:1046100091DD793F135C603E9DC7793F5CE4613E6C
:1046200083B1793F836C633E439B793F86F4643E5C
:10463000DC84793F667C663E4E6E793F2204683E9C
:104640009A57793FBA8B693EC040793F2F136B3E32
:10465000BF29793F7F9A6C3E9812793FAB216E3E1D
:104660004AFB783FB2A86F3ED6E3783F942F713E65
:104670003BCC783F51B6723E7BB4783FE83C743E09
:10468000939C783F5AC3753E8684783FA649773E0F
:10469000526C783FCCCF783EF853783FCB557A3E7A
:1046A000773B783FA4DB7B3ED122783F56617D3E4D
:1046B000040A783FE1E67E3E10F1773F2236803EE5
:1046C000F7D7773FC0F8803EB7BE773F4ABB813E01
:1046D00051A5773FC07D823EC58B773F2240833E08
:1046E0001372773F7002843E3A58773FAAC4843EE3
:1046F0003C3E773FCE86853E1724773FDF48863E97
:10470000CC09773FDA0A873E5BEF763FC1CC873E24
:10471000C4D4763F938E883E07BA763F5050893E88
:10472000249F763FF8118A3E1B84763F8AD38A3EC7
:10473000EC68763F07958B3E974D763F6E568C3EE4
:104740001B32763FC0178D3E7A16763FFCD88D3EE1
:10475000B3FA753F229A8E3EC6DE753F325B8F3EBE
:10476000B3C2753F2C1C903E7BA6753F10DD903E7A
:104770001C8A753FDD9D913E976D753F945E923E1C
:10478000ED50753F351F933E1D34753FBFDF933E9F
:104790002717753F31A0943E0BFA743F8D60953E0C
:1047A000C9DC743FD220963E62BF743F00E1963E62
:1047B000D5A1743F17A1973E2284743F1661983E9D
:1047C0004966743FFE20993E4B48743FCEE0993EC7
:1047D000272A743F86A09A3EDD0B743F27609B3EDC
:1047E0006EED733FAF1F9C3ED9CE733F20DF9C3EE2
:1047F0001FB0733F789E9D3E3F91733FB85D9E3ED4
:104800003972733FDF1C9F3E0E53733FEEDB9F3EBA
:10481000BE33733FE59AA03E4714733FC259A13E91
:10482000ACF4723F8718A23EEBD4723F33D7A23E5E
:1048300004B5723FC595A33EF894723F3F54A43E21
:10484000C774723F9F12A53E7054723FE5D0A53EDB
:10485000F433723F128FA63E5213723F254DA73E8E
:104860008CF2713F1F0BA83E9FD1713FFEC8A83E3E
:104870008EB0713FC486A93E578F713F6F44AA3EE8
:10488000FB6D713F0102AB3E7A4C713F77BFAB3E8F
:10489000D42A713FD47CAC3E0809713F153AAD3E35
:1048A00017E7703F3CF7AD3E02C5703F49B4AE3EDE
:1048B000C6A2703F3A71AF3E6680703F102EB03E88
:1048C000E15D703FCBEAB03E373B703F6BA7B13E36
:1048D0006718703FEF63B23E73F56F3F5820B33EE9
:1048E0005AD26F3FA5DCB33E1BAF6F3FD698B43EA4
:1048F000B88B6F3FEC54B53E30686F3FE610B63E64
:1049000083446F3FC3CCB63EB0206F3F8488B73E30
:10491000BAFC6E3F2A44B83E9ED86E3FB2FFB83E06
:104920005DB46E3F1EBBB93EF88F6E3F6E76BA3EE9
:104930006D6B6E3FA031BB3EBE466E3FB6ECBB3EDC
:10494000EB216E3FAFA7BC3EF2FC6D3F8B62BD3EDC
:10495000D5D76D3F4A1DBE3E93B26D3FEBD7BE3EED
:104960002D8D6D3F6F92BF3EA1676D3FD54CC03E10
:10497000F2416D3F1E07C13E1D1C6D3F48C1C13E47
:1049800024F66C3F557BC23E07D06C3F4435C33E96
:10499000C5A96C3F15EFC33E5E836C3FC8A8C43EFB
:1049A000D45C6C3F5C62C53E24366C3FD21BC63E75
:1049B000500F6C3F29D5C63E58E86B3F628EC73E0C
:1049C0003BC16B3F7C47C83EFB996B3F7700C93EBC
:1049D00095726B3F53B9C93E0C4B6B3F1072CA3E88
:1049E0005E236B3FAE2ACB3E8CFB6A3F2CE3CB3E73
:1049F00095D36A3F8B9BCC3E7BAB6A3FCA53CD3E7F
:104A00003C836A3FEA0BCE3ED95A6A3FEAC3CE3EA8
:104A100052326A3FCA7BCF3EA7096A3F8A33D03EF3
:104A2000D7E0693F2AEBD03EE4B7693FAAA2D13E66
:104A3000CC8E693F095AD23E9165693F4811D33EF9
:104A4000323C693F67C8D33EAE12693F647FD43EB3
:104A500007E9683F4136D53E3CBF683FFDECD53E97
:104A60004C95683F99A3D63E396B683F135AD73EA1
:104A70000341683F6B10D83EA816683FA3C6D83ED6
:104A80002AEC673FB97CD93E87C1673FAD32DA3E39
:104A9000C196673F80E8DA3ED86B673F319EDB3EC8
:104AA000CA40673FC153DC3E9915673F2E09DD3E82
:104AB00045EA663F79BEDD3ECCBE663FA273DE3E70
:104AC0003093663FA928DF3E7167663F8DDDDF3E8C
:104AD0008E3B663F4F92E03E880F663FEE46E13EDA
:104AE0005EE3653F6AFBE13E10B7653FC4AFE23E5F
:104AF000A08A653FFA63E33E0B5E653F0E18E43E15
:104B00005431653FFECBE43E7904653FCB7FE53E03
:104B10007BD7643F7533E63E59AA643FFBE6E63E29
:104B2000147D643F5D9AE73EAC4F643F9C4DE83E88
:104B30002122643FB700E93E73F4633FAEB3E93E20
:104B4000A1C6633F8166EA3EAC98633F3019EB3EF5
:104B5000956A633FBBCBEB3E5A3C633F217EEC3E04
:104B6000FC0D633F6330ED3E7BDF623F80E2ED3E54
:104B7000D7B0623F7994EE3E1082623F4C46EF3EE2
:104B80002653623FFBF7EF3E1A24623F85A9F03EB1
:104B9000EAF4613FEA5AF13E98C5613F290CF23EC2
:104BA0002296613F43BDF23E8A66613F386EF33E16
:104BB000D036613F071FF43EF206613FB1CFF43EAD
:104BC000F2D6603F3580F53ECFA6603F9330F63E8B
:104BD0008976603FCBE0F63E2146603FDC90F73EB1
:104BE0009615603FC840F83EE9E45F3F8EF0F83E1E
:104BF00019B45F3F2DA0F93E27835F3FA54FFA3ED2
:104C000012525F3FF7FEFA3EDB205F3F22AEFB3ED3
:104C100081EF5E3F275DFC3E05BE5E3F040CFD3E1E
:104C2000678C5E3FBBBAFD3EA65A5E3F4A69FE3EB8
:104C3000C3285E3FB217FF3EBEF65D3FF3C5FF3EA1
:104C400097C45D3F063A003F4D925D3FFF90003FA5
:104C5000E15F5D3FE4E7003F532D5D3FB53E013F1F
:104C6000A3FA5C3F7395013FD1C75C3F1CEC013F49
:104C7000DD945C3FB142023FC7615C3F3299023F25
:104C80008E2E5C3F9FEF023F34FB5B3FF845033FB6
:104C9000B8C75B3F3D9C033F1A945B3F6DF2033FF7
:104CA0005A605B3F8948043F792C5B3F919E043FEB
:104CB00075F85A3F84F4043F50C45A3F624A053F96
:104CC00009905A3F2CA0053FA05B5A3FE2F5053FF3
:104CD00016275A3F824B063F6AF2593F0EA1063F04
:104CE0009CBD593F86F6063FAD88593FE84B073FCC
:104CF0009C53593F36A1073F6A1E593F6FF6073F45
:104D000017E9583F924B083FA1B3583FA1A0083F75
:104D10000B7E583F9BF5083F5348583F7F4A093F59
:104D20007912583F4E9F093F7FDC573F09F4093FF6
:104D300063A6573FAD480A3F2670573F3D9D0A3F47
:104D4000C739573FB7F10A3F4803573F1C460B3F4F
:104D5000A7CC563F6B9A0B3FE595563FA5EE0B3F10
:104D6000025F563FC9420C3FFE27563FD7960C3F85
:104D7000D9F0553FD0EA0C3F93B9553FB33E0D3FB4
:104D80002C82553F81920D3FA44A553F38E60D3F96
:104D9000FB12553FDA390E3F31DB543F658D0E3F34
:104DA00047A3543FDBE00E3F3B6B543F3B340F3F88
:104DB0000F33543F84870F3FC3FA533FB8DA0F3F96
:104DC00055C2533FD52D103FC789533FDC80103F5C
:104DD0001851533FCDD3103F4918533FA726113FD9
:104DE00059DF523F6B79113F49A6523F19CC113F11
:104DF000186D523FB01E123FC633523F3071123F02
:104E000054FA513F9AC3123FC2C0513FEE15133FAF
:104E10001087513F2A68133F3D4D513F50BA133F11
:104E20004A13513F5F0C143F37D9503F585E143F2F
:104E3000039F503F39B0143FAF64503F0402153F09
:104E40003B2A503FB753153FA8EF4F3F54A5153F9E
:104E5000F4B44F3FD9F6153F1F7A4F3F4748163FEE
:104E60002B3F4F3F9F99163F17044F3FDFEA163FF6
:104E7000E4C84E3F073C173F908D4E3F188D173FBB
:104E80001C524E3F12DE173F89164E3FF52E183F3B
:104E9000D5DA4D3FC07F183F029F4D3F73D0183F7A
:104EA00010634D3F0F21193FFD264D3F9471193F6F
:104EB000CBEA4C3F00C2193F79AE4C3F55121A3F26
:104EC00008724C3F93621A3F78354C3FB8B21A3F94
:104ED000C7F84B3FC6021B3FF8BB4B3FBB521B3FC3
:104EE000097F4B3F99A21B3FFA414B3F5FF21B3FAB
:104EF000CC044B3F0C421C3F7FC74A3FA2911C3F52
:104F0000138A4A3F1FE11C3F874C4A3F84301D3FB4
:104F1000DC0E4A3FD17F1D3F12D1493F06CF1D3FD6
:104F20002993493F221E1E3F2155493F266D1E3FB2
:104F3000FA16493F12BC1E3FB3D8483FE50A1F3F4F
:104F40004E9A483F9F591F3FCA5B483F41A81F3FA9
:104F5000271D483FCBF61F3F65DE473F3B45203FBF
:104F6000849F473F9393203F8560473FD2E1203F96
:104F70006721473FF92F213F2AE2463F067E213F26
:104F8000CEA2463FFBCB213F5463463FD719223F79
:104F9000BB23463F9967223F03E4453F43B5223F89
:104FA0002DA4453FD302233F3964453F4B50233F57
:104FB0002624453FA99D233FF5E3443FEEEA233FE6
:104FC000A5A3443F1A38243F3763443F2C85243F30
:104FD000AB22443F25D2243F00E2433F041F253F3C
:104FE00038A1433FCB6B253F5160433F77B8253F06
:104FF0004C1F433F0A05263F29DE423F8451263F8E
:10500000E89C423FE39D263F895B423F2AEA263FD8
:105010000B1A423F5636273F70D8413F6882273FE0
:10502000B796413F61CE273FE154413F401A283FA8
:10503000EC12413F0566283FDAD0403FB0B1283F2F
:10504000A98E403F41FD283F5C4C403FB848293F76
:10505000F009403F1594293F67C73F3F57DF293F7D
:10506000C0843F3F802A2A3FFC413F3F8E752A3F44
:105070001BFF3E3F82C02A3F1BBC3E3F5B0B2B3FCA
:10508000FF783E3F1B562B3FC5353E3FBFA02B3F11
:105090006EF23D3F4AEB2B3FF9AE3D3FB9352C3F19
:1050A000676B3D3F0F802C3FB8273D3F49CA2C3FDF
:1050B000ECE33C3F69142D3F03A03C3F6F5E2D3F66
:1050C000FC5B3C3F59A82D3FD9173C3F29F22D3FAF
:1050D00098D33B3FDE3B2E3F3B8F3B3F78852E3FB7
:1050E000C14A3B3FF7CE2E3F29063B3F5B182F3F7F
:1050F00075C13A3FA5612F3FA47C3A3FD3AA2F3F09
:10510000B7373A3FE6F32F3FACF2393FDE3C303F52
:1051100085AD393FBB85303F4268393F7CCE303F5B
:10512000E122393F2217313F65DD383FAD5F313F26
:10513000CB97383F1DA8313F1652383F71F0313FB1
:10514000430C383FAA38323F55C6373FC780323FFD
:105150004A80373FC9C8323F233A373FAF10333F09
:10516000DFF3363F7A58333F7FAD363F29A0333FD8
:105170000467363FBCE7333F6C20363F342F343F63
:10518000B8D9353F8F76343FE792353FCFBD343FB6
:10519000FB4B353FF304353FF304353FFB4B353FC5
:1051A000CFBD343FE792353F8F76343FB8D9353F96
:1051B000342F343F6C20363FBCE7333F0467363F23
:1051C00029A0333F7FAD363F7A58333FDFF3363F78
:1051D000AF10333F233A373FC9C8323F4A80373F89
:1051E000C780323F55C6373FAA38323F430C383F5D
:1051F00071F0313F1652383F1DA8313FCB97383FF1
:10520000AD5F313F65DD383F2217313FE122393F45
:105210007CCE303F4268393FBB85303F85AD393F5A
:10522000DE3C303FACF2393FE6F32F3FB7373A3F31
:10523000D3AA2F3FA47C3A3FA5612F3F75C13A3FC7
:105240005B182F3F29063B3FF7CE2E3FC14A3B3F1D
:1052500078852E3F3B8F3B3FDE3B2E3F98D33B3F35
:1052600029F22D3FD9173C3F59A82D3FFC5B3C3F0D
:105270006F5E2D3F03A03C3F69142D3FECE33C3FA4
:1052800049CA2C3FB8273D3F0F802C3F676B3D3FFD
:10529000B9352C3FF9AE3D3F4AEB2B3F6EF23D3F17
:1052A000BFA02B3FC5353E3F1B562B3FFF783E3FEF
:1052B0005B0B2B3F1BBC3E3F82C02A3F1BFF3E3F88
:1052C0008E752A3FFC413F3F802A2A3FC0843F3FE2
:1052D00057DF293F67C73F3F1594293FF009403FFB
:1052E000B848293F5C4C403F41FD283FA98E403FD4
:1052F000B0B1283FDAD0403F0566283FEC12413F6D
:10530000401A283FE154413F61CE273FB796413FC5
:105310006882273F70D8413F5636273F0B1A423FDD
:105320002AEA263F895B423FE39D263FE89C423FB5
:105330008451263F29DE423F0A05263F4C1F433F4A
:1053400077B8253F5160433FCB6B253F38A1433FA2
:10535000041F253F00E2433F25D2243FAB22443FB8
:105360002C85243F3763443F1A38243FA5A3443F8C
:10537000EEEA233FF5E3443FA99D233F2624453F22
:105380004B50233F3964453FD302233F2DA4453F73
:1053900043B5223F03E4453F9967223FBB23463F85
:1053A000D719223F5463463FFBCB213FCEA2463F55
:1053B000067E213F2AE2463FF92F213F6721473FE2
:1053C000D2E1203F8560473F9393203F849F473F32
:1053D0003B45203F65DE473FCBF61F3F271D483F3B
:1053E00041A81F3FCA5B483F9F591F3F4E9A483F05
:1053F000E50A1F3FB3D8483F12BC1E3FFA16493F8B
:10540000266D1E3F2155493F221E1E3F2993493FCD
:1054100006CF1D3F12D1493FD17F1D3FDC0E4A3FD1
:1054200084301D3F874C4A3F1FE11C3F138A4A3F8F
:10543000A2911C3F7FC74A3F0C421C3FCC044B3F0C
:105440005FF21B3FFA414B3F99A21B3F097F4B3F45
:10545000BB521B3FF8BB4B3FC6021B3FC7F84B3F3D
:10546000B8B21A3F78354C3F93621A3F08724C3FEE
:1054700055121A3F79AE4C3F00C2193FCBEA4C3F60
:105480009471193FFD264D3F0F21193F10634D3F89
:1054900073D0183F029F4D3FC07F183FD5DA4D3F74
:1054A000F52E183F89164E3F12DE173F1C524E3F15
:1054B000188D173F908D4E3F073C173FE4C84E3F75
:1054C000DFEA163F17044F3F9F99163F2B3F4F3F90
:1054D0004748163F1F7A4F3FD9F6153FF4B44F3F68
:1054E00054A5153FA8EF4F3FB753153F3B2A503FF8
:1054F0000402153FAF64503F39B0143F039F503F43
:10550000585E143F37D9503F5F0C143F4A13513F48
:1055100050BA133F3D4D513F2A68133F1087513F0A
:10552000EE15133FC2C0513F9AC3123F54FA513F88
:105530003071123FC633523FB01E123F186D523FBA
:1055400019CC113F49A6523F6B79113F59DF523FA9
:10555000A726113F4918533FCDD3103F1851533F51
:10556000DC80103FC789533FD52D103F55C2533FB4
:10557000B8DA0F3FC3FA533F84870F3F0F33543FCE
:105580003B340F3F3B6B543FDBE00E3F47A3543FA0
:10559000658D0E3F31DB543FDA390E3FFB12553F2C
:1055A00038E60D3FA44A553F81920D3F2C82553F6E
:1055B000B33E0D3F93B9553FD0EA0C3FD9F0553F6C
:1055C000D7960C3FFE27563FC9420C3F025F563F1D
:1055D000A5EE0B3FE595563F6B9A0B3FA7CC563F88
:1055E0001C460B3F4803573FB7F10A3FC739573FA7
:1055F0003D9D0A3F2670573FAD480A3F63A6573F7F
:1056000009F4093F7FDC573F4E9F093F7912583F0D
:105610007F4A093F5348583F9BF5083F0B7E583F50
:10562000A1A0083FA1B3583F924B083F17E9583F4C
:105630006FF6073F6A1E593F36A1073F9C53593FFB
:10564000E84B073FAD88593F86F6063F9CBD593F62
:105650000EA1063F6AF2593F824B063F16275A3F7A
:10566000E2F5053FA05B5A3F2CA0053F09905A3F49
:10567000624A053F50C45A3F84F4043F75F85A3FCC
:10568000919E043F792C5B3F8948043F5A605B3F01
:105690006DF2033F1A945B3F3D9C033FB8C75B3FED
:1056A000F845033F34FB5B3F9FEF023F8E2E5C3F8C
:1056B0003299023FC7615C3FB142023FDD945C3FDB
:1056C0001CEC013FD1C75C3F7395013FA3FA5C3FDF
:1056D000B53E013F532D5D3FE4E7003FE15F5D3F95
:1056E000FF90003F4D925D3F063A003F97C45D3FFB
:1056F000F3C5FF3EBEF65D3FB217FF3EC3285E3FD7
:105700004A69FE3EA65A5E3FBBBAFD3E678C5E3FCD
:10571000040CFD3E05BE5E3F275DFC3E81EF5E3F13
:1057200022AEFB3EDB205F3FF7FEFA3E12525F3FA8
:10573000A54FFA3E27835F3F2DA0F93E19B45F3F86
:105740008EF0F83EE9E45F3FC840F83E9615603FB2
:10575000DC90F73E2146603FCBE0F63E8976603F25
:105760009330F63ECFA6603F3580F53EF2D6603FDF
:10577000B1CFF43EF206613F071FF43ED036613FE1
:10578000386EF33E8A66613F43BDF23E2296613F2A
:10579000290CF23E98C5613FEA5AF13EEAF4613FB6
:1057A00085A9F03E1A24623FFBF7EF3E2653623F85
:1057B0004C46EF3E1082623F7994EE3ED7B0623F96
:1057C00080E2ED3E7BDF623F6330ED3EFC0D633FE8
:1057D000217EEC3E5A3C633FBBCBEB3E956A633F78
:1057E0003019EB3EAC98633F8166EA3EA1C6633F49
:1057F000AEB3E93E73F4633FB700E93E2122643F54
:105800009C4DE83EAC4F643F5D9AE73E147D643F9B
:10581000FBE6E63E59AA643F7533E63E7BD7643F1C
:10582000CB7FE53E7904653FFECBE43E5431653FD6
:105830000E18E43E0B5E653FFA63E33EA08A653FC7
:10584000C4AFE23E10B7653F6AFBE13E5EE3653FF1
:10585000EE46E13E880F663F4F92E03E8E3B663F4C
:105860008DDDDF3E7167663FA928DF3E3093663FDE
:10587000A273DE3ECCBE663F79BEDD3E45EA663FA2
:105880002E09DD3E9915673FC153DC3ECA40673F94
:10589000319EDB3ED86B673F80E8DA3EC196673FBA
:1058A000AD32DA3E87C1673FB97CD93E2AEC673F0B
:1058B000A3C6D83EA816683F6B10D83E0341683F88
:1058C000135AD73E396B683F99A3D63E4C95683F33
:1058D000FDECD53E3CBF683F4136D53E07E9683F09
:1058E000647FD43EAE12693F67C8D33E323C693F05
:1058F0004811D33E9165693F095AD23ECC8E693F2B
:10590000AAA2D13EE4B7693F2AEBD03ED7E0693F77
:105910008A33D03EA7096A3FCA7BCF3E52326A3FE4
:10592000EAC3CE3ED95A6A3FEA0BCE3E3C836A3F79
:10593000CA53CD3E7BAB6A3F8B9BCC3E95D36A3F2F
:105940002CE3CB3E8CFB6A3FAE2ACB3E5E236B3F03
:105950001072CA3E0C4B6B3F53B9C93E95726B3FF8
:105960007700C93EFB996B3F7C47C83E3BC16B3F0C
:10597000628EC73E58E86B3F29D5C63E500F6C3F3C
:10598000D21BC63E24366C3F5C62C53ED45C6C3F85
:10599000C8A8C43E5E836C3F15EFC33EC5A96C3FEB
:1059A0004435C33E07D06C3F557BC23E24F66C3F66
:1059B00048C1C13E1D1C6D3F1E07C13EF2416D3FF7
:1059C000D54CC03EA1676D3F6F92BF3E2D8D6D3FA0
:1059D000EBD7BE3E93B26D3F4A1DBE3ED5D76D3F5D
:1059E0008B62BD3EF2FC6D3FAFA7BC3EEB216E3F2C
:1059F000B6ECBB3EBE466E3FA031BB3E6D6B6E3F0C
:105A00006E76BA3EF88F6E3F1EBBB93E5DB46E3FF8
:105A1000B2FFB83E9ED86E3F2A44B83EBAFC6E3FF5
:105A20008488B73EB0206F3FC3CCB63E83446F3FFF
:105A3000E610B63E30686F3FEC54B53EB88B6F3F12
:105A4000D698B43E1BAF6F3FA5DCB33E5AD26F3F32
:105A50005820B33E73F56F3FEF63B23E6718703F57
:105A60006BA7B13E373B703FCBEAB03EE15D703F84
:105A7000102EB03E6680703F3A71AF3EC6A2703FB6
:105A800049B4AE3E02C5703F3CF7AD3E17E7703FEC
:105A9000153AAD3E0809713FD47CAC3ED42A713F23
:105AA00077BFAB3E7A4C713F0102AB3EFB6D713F5D
:105AB0006F44AA3E578F713FC486A93E8EB0713F96
:105AC000FEC8A83E9FD1713F1F0BA83E8CF2713FCC
:105AD000254DA73E5213723F128FA63EF433723FFC
