:020000040800F2
:10000000A886002079A80108B9720008BB72000810
:10001000C5720008CF720008D97200080000000005
:10002000000000000000000000000000E372000873
:10003000ED72000800000000F77200080D73000860
:1000400009AD01080DAD010811AD010815AD01089C
:1000500019AD01081DAD010821AD010825AD01084C
:1000600029AD01082DAD010831AD010835AD0108FC
:1000700039AD01083DAD010841AD010845AD0108AC
:1000800049AD01084DAD010851AD01080000000067
:1000900000000000000000000000000055AD010855
:1000A00059AD01085DAD010861AD010865AD0108FC
:1000B00003730008F97200085163000869AD010874
:1000C0006DAD010871AD010875AD010879AD01088C
:1000D0007DAD0108557300085F7300080000000043
:1000E0001973000881AD010885AD0108000000000A
:1000F00000000000000000000000000089AD0108C1
:10010000000000008DAD010891AD010895AD01081A
:1001100000000000000000000000000000000000DF
:1001200099AD01089DAD0108A1AD0108A5AD01087B
:10013000A9AD010800000000000000000000000060
:10014000000000000000000000000000ADAD01084C
:10015000B1AD0108B5AD0108B9AD0108BDAD0108EB
:10016000C1AD0108C5AD010800000000000000009D
:10017000000000000000000000000000000000007F
:1001800000000000C9AD01080000000000000000F0
:10019000CDAD010870B54FF48061DFF8280C02F096
:1001A000A5FF0020DFF8241B08730020DFF8201BC8
:1001B000087000F0F6F800F04EF800F019F832215F
:1001C000DFF8100B03F0DCF800F066FD08240025D2
:1001D000DFF8046B2A002100300003F099F9DFF802
:1001E000740C03F0E5F9002801D002F0D1FD70BDD8
:1001F0000120DFF8D81AC8700120DFF8D01A887102
:100200000020DFF8C81A08730020DFF8C01A48750C
:100210000020DFF8B81AC8750020DFF8B01A88751A
:100220000020DFF8A81A08610020DFF8A01A08757E
:100230000120DFF8801C08700120DFF8781C48706E
:100240000020DFF8701C81F827000120DFF8641C13
:1002500081F8290070470020DFF85C1C88720020BC
:10026000DFF8541CC8620020DFF84C1C48630020F3
:10027000DFF8441CC8630020DFF83C1C0864002041
:10028000DFF8341C48640020DFF82C1C486505208A
:10029000DFF8241C88650020DFF81C1CC8650020DE
:1002A000DFF8141C48660020DFF80C1C886600206C
:1002B000DFF8041C81F870000020DFF8FC1BC86622
:1002C000704770B582B000200090DFF88C0B00689A
:1002D00050F00400DFF8801B0860DFF87C0B00683A
:1002E00010F004000090009800200090DFF8680BE8
:1002F000006850F00100DFF8601B0860DFF8580B61
:10030000006810F00100009000984FF48050DFF872
:10031000B41A08640120DFF8AC1A48640120DFF841
:10032000A41A88640320DFF89C1AC864DFF88C1BC9
:10033000DFF88C0B03F062FA0020DFF8881B81F8ED
:1003400026000020DFF8881908701B240025DFF83C
:10035000786B2A002100300003F0DAF800224FF415
:100360008051DFF85C0B03F0DAFBC82003F009FCD6
:1003700001224FF48051DFF8480B03F0D0FB32200C
:1003800003F0FFFB4FF48051DFF8340B03F019FB4F
:10039000DFF8300B90F82600012801D000BFF7E706
:1003A00073BD80B500224FF48051DFF8200B03F0BD
:1003B000B6FB0122DFF8181BDFF8180B03F025FD50
:1003C000DFF8001A81F83C00DFF8F80990F83C00EB
:1003D000002803D10120DFF8DC1A087301BD2DE9E4
:1003E000F04182B004000025DFF8C80A0079002837
:1003F00040F0198272B6DFF8DC0803F029F8DFF864
:10040000D81A886362B6DFF8D00A806B002800F043
:100410000A82DFF8C40A806B407B012840F0038227
:10042000DFF8B40A806B807B002800F0FC81022892
:1004300024D01DD3042800F0E681C0F0E481062812
:1004400000F0D781C0F0DF81082800F0E781C0F01C
:10045000E4810A2800F0A48048D30C2800F0DB8057
:10046000C0F048810E2800F09481C0F00581DAE1E7
:10047000DFF8640A806B02F029FAD4E1DFF8380A69
:10048000807A401CDFF8301A88720020DFF8241AC6
:1004900081F827000020DFF8201AC866DFF8180A64
:1004A000807A092809DB0120DFF82018087504206C
:1004B000DFF8041A81F8C300B5E10120DFF818184D
:1004C000DFF8142A926B12898854DFF80C0A806BCB
:1004D0000089DFF8E41908700120DFF8F0170875CB
:1004E0000020DFF8D41981F8C3009CE102F03CFC45
:1004F000DFF8C4094069002809D0DFF8BC09426967
:10050000DFF8D819DFF8D80903F0CEFF21E0DFF8D3
:10051000A809006E002810D0DFF89C09006E00903A
:10052000DFF894090369DFF89009C268DFF8B419AD
:10053000DFF8AC0903F0B8FF0BE0DFF87C090369D2
:10054000DFF87409C268DFF8A019DFF8940903F036
:10055000ABFFDFF88C0903F0C1FF80B202F01FFC93
:100560000500EDB2002D11D10020DFF84C19C8664E
:100570000120DFF8401981F827000120DFF8341945
:1005800008710120DFF82C19887008E00D20DFF8D1
:10059000281981F8C3000120DFF83017087542E1FF
:1005A00002F0E2FBDFF81009038DDFF80C09027995
:1005B000DFF83819DFF8280903F076FFDFF82009A3
:1005C00003F08CFF80B202F0EAFB0500EDB2002DD3
:1005D00014D102F0C9FBDFF8E008068DDFF8D80877
:1005E000476ADFF8FC8832003900404603F092FF8A
:1005F000DFF8C408008D02F0D2FB0500EDB2002D3B
:1006000008D00120DFF8C41608750D20DFF8A818FF
:1006100081F8C30007E102F0A7FBDFF89C088069BE
:100620000090DFF89408036EDFF88C08C268DFF8EA
:10063000C018DFF8AC0803F037FFDFF8A40803F0B8
:100640004DFF80B202F0ABFB0500EDB2002D09D0EA
:100650000120DFF8781608750D20DFF85C1881F8A6
:10066000C30008E00020DFF85018C8660120DFF85A
:10067000441881F82700D6E0DFF85C06DFF8581848
:10068000896B0989405C00282FD002F06DFBDFF8F0
:100690004808806B0289DFF85C18DFF8440803F033
:1006A00003FFDFF83C0803F019FF80B202F077FB8C
:1006B0000500EDB2002D1CD10020DFF8FC1781F8F9
:1006C000C3000120DFF8EC170871DFF80C08806B1D
:1006D0000089DFF8E41788710120DFF8F01548730E
:1006E0000120DFF8E815487003E0DFF80C0803F09C
:1006F0004DFF98E002F038FBDFF8BC07C069002826
:1007000006D1DFF8F817DFF8D80703F0CDFE1EE0BA
:10071000DFF8A407C068002809D1DFF89C07C26988
:10072000DFF8DC17DFF8B80703F0BEFE0FE0DFF8F4
:100730008807006E0090DFF88007C369DFF878074C
:10074000C268DFF8C017DFF8980703F0ADFEDFF8E6
:10075000900703F0C3FE80B202F021FB0500EDB26A
:10076000002D0CD10120DFF84C1788750120DFF82F
:10077000441708740120DFF83C17C87508E0012011
:10078000DFF8481508750D20DFF82C1781F8C30035
:1007900049E002F0E9FADFF82007006E0090DFF888
:1007A0001807C369DFF81007C268DFF85C17DFF8C5
:1007B000300703F079FEDFF8280703F08FFE80B2E0
:1007C00002F0EDFA0500EDB2002D08D10120DFF8AE
:1007D000E41608750120DFF8DC16087408E0012033
:1007E000DFF8E81408750D20DFF8CC1681F8C30097
:1007F00019E00120DFF8D41408750D20DFF8B816D1
:1008000081F8C3000FE00120DFF8C0140875002054
:10081000DFF8A41681F8C30005E004E00120DFF84A
:10082000AC140875FFE7DFF88C06C07B01280AD1FD
:10083000DFF88406406B80B204F02EF90020DFF868
:100840007416C873CDE0DFF86C06C07C01280BD1AC
:10085000DFF87804C078012806D104F06BF9002095
:10086000DFF85016C874BCE0DFF84806407F012866
:100870001DD1DFF84406836CDFF83C06C26CDFF85C
:100880008C16DFF83406807804F03DFB4FF40076D8
:100890000027DFF878863A003100404602F038FE43
:1008A00000F00FFA0020DFF80C16487799E0DFF827
:1008B0000406807F01281BD1DFF8FC05836CDFF87C
:1008C000F805C26CDFF84416092004F01CFB4FF455
:1008D00000760027DFF834863A003100404602F007
:1008E00017FE00F0EEF90020DFF8C815887778E0F1
:1008F000DFF8C00590F82000012812D1DFF8D803F6
:10090000DFF8B415C979405C002804D0DFF8A805E9
:10091000C07902F0F1F90020DFF8981581F8200085
:100920005FE0DFF89005C07F012808D1DFF8E0051F
:1009300005F058F90020DFF87C15C87751E0DFF8A2
:10094000740590F82200012818D1DFF86C05016BBE
:10095000DFF8B80506F08CFA4FF400760027DFF8D0
:10096000AC853A003100404602F0D2FD00F0A9F912
:100970000020DFF8401581F8220032E0DFF834056E
:1009800090F82300012815D1DFF8800506F071FAF0
:100990004FF400760027DFF874853A0031004046B6
:1009A00002F0B6FD00F08DF90020DFF8081581F89F
:1009B000230016E0DFF8FC04407B012806D106F096
:1009C00059FA0020DFF8EC1448730AE0DFF8E40479
:1009D000807B012805D106F04EFA0020DFF8D41400
:1009E0008873BA4890F8260001280AD1B748007BDE
:1009F000022806D1B548007B401CB449087305F0B5
:100A00008FF8B24890F8210001280DD1B048007845
:100A1000002804D10120AE49087005F08FF80020AD
:100A2000AA4981F8210035E1A84890F82200012860
:100A300006D106F021FA0020A44981F8220029E11C
:100A4000A24890F82300012808D1DFF8C80406F076
:100A500014FA00209D4981F823001BE19B4890F87F
:100A60002400012808D1DFF8AC0406F007FA0020C2
:100A7000964981F824000DE1DFF8380490F826004B
:100A8000012807D105F068F80020DFF8281481F864
:100A90002600FFE0DFF81C0490F82100012807D1B0
:100AA00005F05AF80020DFF80C1481F82100F1E07D
:100AB0008648007E012806D100208449087611204E
:100AC00006F0DDF9E6E08148407E012806D10020ED
:100AD0007E494876142006F0D2F9DBE07B48807E20
:100AE000012806D1002079498876132006F0C7F93D
:100AF000D0E07648C07E012806D100207349C87630
:100B0000152006F0BCF9C5E07048007F012806D129
:100B100000206E490877162006F0B1F9BAE06B485C
:100B2000407F012806D10020684948771B2006F045
:100B3000A6F9AFE0654890F82500012807D100200C
:100B4000624981F825001C2006F099F9A2E05F486F
:100B5000807F012806D100205C498877172002F0A9
:100B6000BFFA97E05948C07F012806D100205749B5
:100B7000C877122002F0B4FA8CE0544890F82000B4
:100B8000012807D10020514981F82000182002F0E7
:100B9000A7FA7FE04D4890F82800012807D10020EF
:100BA0004A4981F828001D2004F0E6FF72E047481A
:100BB00090F82D00012807D10020444981F82D002C
:100BC0001E2004F0D9FF65E0404890F82900012874
:100BD00007D100203D4981F82900192004F0CCFFFD
:100BE00058E03A4890F82A00012807D100203749F8
:100BF00081F82A001A2004F0BFFF4BE0334890F838
:100C00002B00012807D10020304981F82B00062055
:100C100004F0B2FF3EE02D4890F82E00012807D1E5
:100C200000202A4981F82E001F2006F029F931E022
:100C3000264890F82F00012807D10020234981F889
:100C40002F00202006F01CF924E0204890F8300006
:100C5000012807D100201D4981F83000212006F02D
:100C60000FF917E0974890F83100012807D10020CC
:100C7000944981F83100222006F002F90AE09148F7
:100C800090F83200012805D100208E4981F8320009
:100C900006F0F7F8BDE8F38100208A49886001205A
:100CA00088498870704700208649886000208549FF
:100CB0008870012083494875704700208149C870B9
:100CC000704701207F49C87070470000004F012025
:100CD0007E510120544B0120CC50012080B5794831
:100CE0008078002805D07748C078012801D100F02D
:100CF000BAF8704890F8240001280AD1314802F06F
:100D00000AFA002805D000206A4981F82400FFF77C
:100D100048FB6848407900280ED06748806E411C27
:100D2000654A916640F26C71884205D300206149A2
:100D300048710020604988665E4890F827000028C6
:100D40001BD05D48C06E401C5B49C8665A48C06EE7
:100D500044F62161884210D300205749C86600201C
:100D6000544981F827000D20534981F8C300012020
:100D70005449087500204F4908714E4890F82500E5
:100D800000281DD04C48406E411C4B4A5166B0F5BE
:100D9000FA6F15D34748C079012807D1012045498A
:100DA000C8710020434981F8260007E04148C07916
:100DB000002803D101203F4981F8260002F03CF8C9
:100DC00001BD0000404B012001213E4AD175704712
:100DD00010B50400002037490873FFF764FF72B6AE
:100DE0003B493D4802F0B0F962B6FFF755FF3A487B
:100DF00002F086F900280AD001202E4981F824004B
:100E000001224FF48051314802F089FE13E0294855
:100E1000C07A00280FD101222D492E4802F0F5FF9B
:100E20002D4981F83C002C4890F83C00002802D164
:100E300001202049087310BD2248007D012801D0FF
:100E400000BFF9E700201F4908751B4890F8C30050
:100E500070470000E44D01203038024010B5040016
:100E600001F096FF10BD80B572B61B4802F08EF9F6
:100E70001149086262B61048006A002803D00E4883
:100E8000006A00F049F80B48807E002811D00A481B
:100E9000C06A401C0849C8620748C06A332808D3A2
:100EA00000200549C86200200249887600200149D7
:100EB000087101BD344F012044490120804B0120BD
:100EC00000080240004F0120184F0120000002409E
:100ED000F5490120284D0120404B012050A5010873
:100EE000A80E012070A3010864A5010878A50108D7
:100EF00020A1010828A8010888A30108DCAA01088C
:100F000038A80108389F01083CA10108B43F01201E
:100F100049490120F64901202DE9F04F8BB0050029
:100F200000208DF808000020039028788DF8080034
:100F3000DFF8840D007C00280ED19DF80800DFF852
:100F40007C1DDFF87C2D12688854DFF8740D006872
:100F5000401CDFF86C1D0860DFF8680D02F0C6FA6F
:100F6000DFF8580DDFF8581D0968084410F8020C26
:100F70000D2840F05783DFF8440DDFF8441D096861
:100F8000084410F8010C0A2840F04C83DFF8280DC3
:100F9000807D002840F04683DFF82C0D0078002883
:100FA00040F04083DFF8241DDFF8100D05F06AFFE4
:100FB000002850D0FFF777FE72B6DFF8000D01F081
:100FC0004DFA62B6FFF768FEDFF8EC0C407E0028B1
:100FD00017D172B6DFF8EC0C83B06946D0E9002374
:100FE000C1E90023D0E90223C1E902230EBCDFF8E6
:100FF000E00C02F0E5F962B6DFF8C80C02F076FA10
:1010000010E0DFF8B40C407800280BD1DFF8B40C06
:1010100002F06CFA0020DFF8A01C48760120DFF80F
:10102000981C4870DFF8900CC07E002803D1002087
:10103000DFF8841C48760020DFF8841C0860DFF8A5
:10104000780C807C002804D00020DFF86C1C4875E8
:1010500097E301F0DCB9DFF87C1CDFF8600C05F0E9
:1010600011FF002800F08381DFF86C1CDFF84C0CC6
:1010700005F008FF0400002830D020798DF80A0020
:1010800060798DF80B009DF80A000A2110FB01F031
:101090009DF80B1050FA81F0B0F50470DFF8D01D08
:1010A00008860220DFF8C81D81F8360072B6DFF826
:1010B000140C83B06946D0E90023C1E90023D0E9CC
:1010C0000223C1E902230EBCDFF8040C02F078F918
:1010D00062B6DFF8F00B02F009FA2EE1DFF8FC1B34
:1010E000DFF8D80B05F0CEFE0400002800F08E805B
:1010F000607A8DF80400A07A8DF80500E07A8DF80A
:101100000600207B8DF807009DF805000D2806D10C
:101110009DF804003038DFF8C81B486341E09DF8B3
:1011200006000D280CD19DF804000A219DF8052029
:1011300001FB0020B0F50470DFF8A41B486330E029
:101140009DF807000D2813D19DF8040064219DF837
:1011500005200A235A4301FB00209DF8061050FA8F
:1011600081F0DFF8801B0818DFF8741B486318E073
:101170009DF804004FF47A719DF8052064235A43CA
:1011800001FB00209DF806100A2202FB01009DF8D9
:10119000071050FA81F0DFF8501B0818DFF8401BE9
:1011A0004863DFF83C0B406B002804D00120DFF8D7
:1011B000081BC873C1E0DFF8280B406B002840F023
:1011C000BC80DFF81C0BDFF8181B4978084490F846
:1011D000C400002815D0DFF8140BDFF8041B497891
:1011E000405C002804D0DFF8F80A407801F084FD64
:1011F0000020DFF8EC1ADFF8E82A5278114481F871
:10120000C4000020DFF8B01A087196E0DAA1DFF818
:10121000AC0A05F037FE0400002829D00320DFF8CF
:10122000501C81F83600200003F058F9B0F10B068D
:10123000E71CDFF8FC8D32003900404603F06AF904
:1012400072B6DFF8800A83B06946D0E90023C1E9AD
:101250000023D0E90223C1E902230EBCDFF8700AA3
:1012600002F0AEF862B6DFF85C0A02F03FF964E023
:10127000DFF8540A407800283AD0DFF84C0A407B67
:10128000002856D0DFF8580A807A002806D0DFF808
:10129000500A807A401EDFF8481A88720020DFF872
:1012A000281A48700020DFF8441ADFF8342A9279AF
:1012B0008854DFF82C0A8079DFF8241A487100205E
:1012C000DFF8041A4873DFF8F00990F829000028C5
:1012D00004D00120DFF8E019C87704E00120DFF82E
:1012E000D81981F829000020DFF8CC19087120E016
:1012F0000120DFF87C1B81F834000520DFF8701B2B
:1013000081F8360072B6DFF8BC0983B06946D0E9CF
:101310000023C1E90023D0E90223C1E902230EBC66
:10132000DFF8AC0902F04CF862B6DFF8980902F079
:10133000DDF80020DFF8901948700020DFF88019F0
:1013400008604FF400760027DFF870893A0031001A
:10135000404602F0DDF8DFF86009807C002804D008
:101360000020DFF8541948750BE201F050B8DFF89F
:10137000C41CDFF8480905F085FD002800F09C80BA
:10138000DFF8B41CDFF8340905F07CFD002824D018
:10139000DFF8A80C03F0FAF80020DFF82C194870E9
:1013A0000020DFF824194873DFF80C0990F82900B1
:1013B000002804D10120DFF8001981F8290001205C
:1013C000DFF81C19DFF818299279114481F8C4005C
:1013D0000020DFF8E418087154E0DFF8641CDFF83F
:1013E000DC0805F04FFD002818D00020DFF8C818F1
:1013F00048740020DFF8C01808710020DFF8B81822
:1014000088740020DFF8B01808740020DFF8D018C6
:1014100088640020DFF8C818C86433E00620DFF8CD
:10142000501A81F8360072B6DFF8980883B0694622
:10143000D0E90023C1E90023D0E90223C1E9022356
:101440000EBCDFF88C0801F0BBFF62B6DFF8740851
:1014500002F04CF8DFF860080079002803D0002083
:10146000DFF854180871DFF8500890F827000028BA
:1014700008D00020DFF8401881F827000020DFF8AE
:101480006018C8660020DFF8381808604FF400764E
:101490000027DFF828883A003100404602F038F88B
:1014A000DFF81408807C002804D00020DFF808183A
:1014B000487566E100F0ABBFDFF89C1DDFF8FC0764
:1014C00005F0E0FC00285BD0DFF8901DDFF8EC07AA
:1014D00005F0D8FC0400002C04D00020DFF8001830
:1014E000087203E00120DFF8F81708724CA1DFF85A
:1014F000CC0705F0C7FC0400002C04D00020DFF866
:10150000E017487203E00120DFF8D4174872042086
:10151000DFF85C1981F8360072B6DFF8A80783B0EF
:101520006946D0E90023C1E90023D0E90223C1E9DB
:1015300002230EBCDFF8980701F042FF62B6DFF825
:10154000840701F0D3FF0020DFF8741708604FF420
:1015500000760027DFF864873A003100404601F04A
:10156000D7FFDFF85407807C002807D00020DFF881
:101570004817487505E100BF203D200000F047BF37
:10158000DFF83407807C00282FD0DFF82C07407D5F
:1015900000282AD0DFF82007007F002825D1DFF8B7
:1015A0004007406D002811D072B6DFF83407416D56
:1015B000DFF8BC0801F0C2FE62B6DFF82407466D12
:1015C00000273A003100280001F0A2FF0120DFF8D7
:1015D000E81681F828000020DFF8DC164875DFF8EF
:1015E000E0060068DFF8F8160865DFF8DC0600782A
:1015F000002840F0C680DFF8D0064079002800F0CF
:10160000C0800020DFF8B81608604FF4007600278D
:10161000DFF8A8863A003100404601F079FFB0E0DB
:101620006F757400DFF890068078002872D0DFF8BC
:10163000E41DDFF8880605F025FC00284FD1DFF80F
:10164000D81DDFF8780605F01DFC002847D1DFF82B
:10165000CC1DDFF8680605F015FC00283FD1DFF847
:10166000C01DDFF8580605F00DFC002837D1DFF863
:10167000B41DDFF8480605F005FC00282FD1DFF87F
:10168000A81DDFF8380605F0FDFB002827D1DFF89C
:101690009C1DDFF8280605F0F5FB00281FD1DFF8B8
:1016A000901DDFF8180605F0EDFB002817D1DFF8D4
:1016B000841DDFF8080605F0E5FB00280FD1DFF8F0
:1016C000781DDFF8F80505F0DDFB002807D1DFF80D
:1016D0006C1DDFF8E80505F0D5FB002851D001208E
:1016E000DFF8D41588750120DFF8CC1508740020C8
:1016F000DFF8C41588700520DFF8E4158865002040
:10170000DFF8B41581F827000020DFF8D415C8668B
:1017100000F07DBEDFF8A405DFF8A41509680844D1
:1017200010F8010C092818D1DFF89005DFF89015A2
:101730000968084410F8020C3A280ED1DFF87C053D
:10174000DFF87C150968084410F8030C312804D12F
:101750000120DFF86415087613E0DFF864050068FF
:10176000B0F5FF7F0DD90020DFF8541508604FF465
:1017700000760027DFF844853A003100404601F04A
:10178000C7FEDFF83405007C002800F0FD80DFF89C
:10179000280590F82800002840F0F680DFF8400582
:1017A000406DDFF83C150865DFF814050068DFF8C8
:1017B0003015096D0818B0F5007F25D3DFF8000556
:1017C0000068DFF81C15096D0818A0F2FF1672B644
:1017D0003100DFF89C0601F0B1FD62B60027DFF8AA
:1017E000E00400684042284400F2FF183A0031004B
:1017F000404601F08DFE40F2FF10DFF8C414096886
:10180000401ADFF8DC140865DFF8D404066DDFF851
:10181000307CDFF8A804DFF8A814096800EB0108A1
:1018200032003900404602F075FEDFF8940400688B
:10183000DFF8AC14096D0818DFF884140860DFF8CD
:1018400080040068012805D1DFF8700400780D28B5
:1018500000F0DD85DFF8EC1BDFF8600405F012FB1B
:10186000002808D00020DFF8501448750020DFF869
:101870004814087788E0DFF850040078002840F02A
:101880008380DFF83404807D00287DD1DFF82C04CC
:101890000078002878D0DFF8240400780D2873D170
:1018A000DFF8180440780A286ED1DFF83404806B22
:1018B000022869D00120DFF8001408777EA1DFF844
:1018C000880B05F0DFFA0400002840D0DFF8EC03B5
:1018D000201A861CDFF8741BDFF86C0B05F0D2FAB7
:1018E00000280ED0DFF8EC13DFF8D003304405F009
:1018F000C9FA0400002C04D0DFF8C003201A801DB0
:101900000600DFF8BC030068801B00281BD072B6FD
:10191000DFF8AC030068811BDFF8540501F00EFD11
:1019200062B6DFF89C030068871B5FF00008DFF8F1
:101930008C0300EB060942463900484601F0E8FDF9
:10194000DFF87C0306600020DFF86C1308770120C5
:10195000DFF864134875DFF86803006840F2FF1190
:10196000884211D1DFF85003007F00280CD00020FE
:10197000DFF8441308770020DFF83C13487540F285
:10198000FF10DFF85C130865DFF82C03407D0028AA
:1019900040F0F381DFF82003807C002800F0ED8127
:1019A0000120DFF824130870DFF83403406CDFF8FF
:1019B0003013096D0818DFF828134864BE4890F802
:1019C0002800002803D00020BB4981F82800DFF858
:1019D000741ABA48C24A926D1044401F05F052FA78
:1019E0000400002C00F0BC80B448B54909680844E4
:1019F00010F8020C0D2840F0B380B048B0490968D7
:101A0000084410F8010C0A2840F0AA80DFF8441AB4
:101A1000AA4805F037FA040000282CD0E07E002800
:101A20000DD0A648261AA648006816F11B01471AD1
:101A300072B63900DFF8380401F080FC62B600208D
:101A40009F4908600020A64948640520A44988658C
:101A50004FF400760027DFF864823A0031004046F8
:101A600001F056FD0120984908750D209C4981F828
:101A7000C30000F0CCBCDFF8C015904805F002FAB6
:101A8000040000281AD0E07D00280DD08B48261ACB
:101A90008B48006816F11701471A72B63900DFF853
:101AA000D00301F04BFC62B601208D498C4A92793B
:101AB000114481F8C4001AE00D0A0000DFF89819FB
:101AC0007E4805F0DFF90400002810D0E07D0028F2
:101AD0000DD07A48261A7A48006816F11701471A7D
:101AE00072B63900DFF8880301F028FC62B60020E6
:101AF0007B49486400207A4948630020784988631C
:101B000005207749886500206B49887400206A4960
:101B1000087100206849087400206B4908610020A2
:101B2000674908600020684908706348407C0028C5
:101B30000AD000206049487400206949C863012028
:101B40005D49087001F082F94FF400760027DFF854
:101B50006C813A003100404601F0DAFC00F057BCDD
:101B600057480068062805D3002C03D15448006864
:101B70005B4988655A48406C5949896B8842C0F076
:101B8000B7805748806B5649496C88421BD25448ED
:101B9000406C5349896B461A72B63100B44801F063
:101BA000CDFB62B60027454845490968891B00EB13
:101BB00001083A003100404601F0AAFC40480068A4
:101BC000801B3F4908603E48006845498864444896
:101BD000806B4349C8643A480668384FDFF8D08CB8
:101BE00032003900404602F095FC0020344908607C
:101BF00000203B49486400203949486300203849A7
:101C0000886300203649086505203549886500202D
:101C1000294948750020284908742748407C002835
:101C20001BD000202E49C86300202D49887026480B
:101C30000069002804D024480069401E2249086138
:101C400021480069002804D101201B49087001F0D7
:101C5000FDF800201849C87409E001201649C8742D
:101C60001F4840781E49887001201749487000209D
:101C700011498874002014490870FFF71EF80E48B7
:101C8000407C002809D001200B49887700200A49B0
:101C9000087100200849487402E00120064948778D
:101CA0004FF400760027DFF814803A0031004046F8
:101CB00001F02EFCABE300BF344F0120B443012000
:101CC00040510120684B0120004F012014AC010855
:101CD000544B01201CAC010824AC0108E8AA0108FF
:101CE0004449012030EBFFFFB02FFFFFCC50012013
:101CF000DFF8C00B0068B0F5FF7F3DD90520DFF8A5
:101D0000B81B8865DFF8B00B806BDFF8AC1BC864CC
:101D100040F2FF10DFF8A01B8864DFF8980B06681C
:101D2000DFF8987BDFF8888B32003900404602F0FC
:101D3000F1FB0020DFF87C1B08600520DFF8781B32
:101D40008865FEF7BAFF4FF400785FF00009DFF80E
:101D50006CAB4A464146504601F0DAFBDFF8600BB7
:101D6000407C002804D00120DFF8541B887703E072
:101D70000120DFF84C1B487749E3DFF8440B807DF6
:101D8000002800F05F810120DFF8381B0870DFF8C1
:101D9000381BDFF8280BDFF8202B926D1044401F12
:101DA00005F070F80400002800F08480E079002835
:101DB00020D0DFF8080B261ADFF8F80A0068B11DFA
:101DC000471A72B639002A4801F0B8FA62B65FF0D5
:101DD0000008DFF8E80A304410F1070942463900EC
:101DE000484601F095FBDFF8CC0A0068C01BDFF81D
:101DF000C41A0860DFF8BC0A0068DFF8BC1A8864FF
:101E0000DFF8B00A0668DFF8B47ADFF8A48A320097
:101E10003900404602F07EFBDFF8980A0068DFF8E0
:101E2000981A08630120DFF89C1A08750020DFF873
:101E3000901A08740020DFF8881A8875FEF73DFFB5
:101E40000020DFF8741A81F8C3000020DFF8741A4C
:101E500008700020DFF8681A48750020DFF8601A63
:101E600008710520DFF8501A8865DFF8480A01E09C
:101E7000404B0120D0F800805FF00009DFF83CAA59
:101E80004A464146504601F043FB0020DFF8241A41
:101E90000860DFF82C0AC07D002805D00120DFF89B
:101EA000201A81F823004CE00120DFF8141A81F891
:101EB000220046E05F49DFF8040ADFF8FC29926D52
:101EC0001044401F04F0DEFF00283AD00120DFF864
:101ED000F41908750D20DFF8E01981F8C30000201F
:101EE000DFF8E01908700020DFF8D419087400202A
:101EF000DFF8CC1948750020DFF8B8190860052014
:101F0000DFF8B41988650020DFF8B41988754FF43C
:101F100000760027DFF8A4893A003100404601F03E
:101F2000F7FADFF89C09C07D002805D00020DFF813
:101F3000901981F8230004E00020DFF8841981F86B
:101F40002200DFF870090068062805D3DFF864096D
:101F50000068DFF864198865DFF85809006840F206
:101F6000FF11884263D1DFF84C0900680990DFF85F
:101F70004C090890DFF83869099A0899300002F096
:101F8000C9FA06200790DFF8980C0690DFF8946CE9
:101F9000079A0699300002F0BDFA0620059000204D
:101FA0000490DFF87C6C049A0599300001F0B0FAD7
:101FB0004FF4007000900026DFF80079320000999D
:101FC000380001F0A5FA0627DFF8588CDFF8EC9806
:101FD0003A004146484602F09DFA5FF006095FF07C
:101FE000000ADFF840BC52464946584601F090FAD4
:101FF0000620DFF8C01808600520DFF8BC188865E7
:1020000040F2F910DFF8B0180863FEF756FEDFF86B
:10201000B008C07D002805D00120DFF8A41881F8A1
:10202000230004E00120DFF8981881F82200EEE197
:10203000B54901202CAC0108A0A3010800960108B5
:10204000109D0108DFF87808407D002840F0968157
:10205000DFF86C08007E002800F09081DFF85C0853
:10206000DFF850180968084410F8020C0D2840F0F9
:102070007181DFF84808DFF83C180968084410F857
:10208000010C0A2840F06681DFF82C0890F87000F7
:10209000DFF82418C978884280F0F880DFF8E41B64
:1020A000DFF8180804F0EEFE0400002C10D0A07930
:1020B0008DF80400E0798DF805009DF804000A21F0
:1020C0009DF8052001FB00201038DFF8BC1B0870CC
:1020D000DFF8B40B0078DFF8B41B0968DFF8D82705
:1020E00092F870202C235A438854DFF8A41BDFF8A1
:1020F000CC0704F0C7FE0400002C0FD0E0798DF867
:102100000400207A8DF805009DF804000A219DF84E
:10211000052001FB0020B0F504700390DFF86C0B84
:102120000068DFF8941791F870102C22514308448E
:10213000039949424160DFF85C1BDFF8800704F037
:10214000A1FE0400002C28D00720DFF84C1B0870EB
:10215000DFF8440B0078205C27281ED0DFF82C0B1A
:102160000068DFF8541791F870102C22514308448E
:10217000DFF8241B09780844DFF81C1B0978615C30
:102180004170DFF8140B0078401CDFF80C1B08705E
:10219000DFF8040B00782328DAD1DFF8581BDFF8CA
:1021A0001C0704F06FFE0400002C0DD0DFF8DC0AE1
:1021B0000068DFF8041791F870102C22514308448E
:1021C000012180F826100CE0DFF8C00A0068DFF873
:1021D000E81691F870102C2251430844002180F831
:1021E0002610DFF8801BDFF8D40604F04BFE040055
:1021F000002C0DD0DFF8940A0068DFF8BC1691F8C7
:1022000070102C2251430844012180F827100CE063
:10221000DFF8780A0068DFF8A01691F870102C2219
:1022200051430844002180F82710DFF8541BDFF8E1
:102230008C0604F027FE0400002C11D0DFF84C0AB5
:102240000068DFF8741691F870102C22514308448E
:10225000012180F8281010E034AC01083CAC0108E2
:10226000DFF8280A0068DFF8501691F870102C2269
:1022700051430844002180F82810DFF83C0690F80C
:102280007000401CDFF8301681F87000DFF8F41A97
:10229000DFF8280604F0F6FD0400002C1FD04FF4F0
:1022A00000760027DFF814863A003100404601F03E
:1022B0002FF90020DFF8FC1508600120DFF8041674
:1022C00008750020DFF8F81508760020DFF8F01513
:1022D00048720D20DFF8E01581F8C30097E0DFF8C1
:1022E000A81ADFF8D80504F0CDFD002824D000207E
:1022F000DFF8CC1548720020DFF8BC1581F87000BB
:102300000020DFF8B01508600120DFF8B815087567
:102310000020DFF8AC1508760020DFF89C1581F866
:10232000C3004FF400760027DFF890853A003100B3
:10233000404601F0EDF86AE00020DFF8781508600B
:102340004FF400760027DFF874853A0031004046EC
:1023500001F0DEF8DFF85C050068B0F5FF7F0DD90D
:102360000020DFF8501508604FF400760027DFF8F2
:102370004C853A003100404601F0CAF8DFF84005CC
:10238000407D002843D1DFF83805007D00283ED08D
:102390002FA002F0FBF8DFF8F419DFF8200504F0B5
:1023A00071FD0400002C1ED0DFF8740A02F0EEF874
:1023B0000120DFF8101508750020DFF8FC1481F803
:1023C000C3000020DFF8F81408750020DFF8E414DB
:1023D00008604FF400760027DFF8E0843A0031000F
:1023E000404601F095F8DFF8CC040068B0F5007FB6
:1023F0000DD30020DFF8BC1408604FF400760027EE
:10240000DFF8B8843A003100404601F081F80BB0A3
:10241000BDE8F08F44AC01084CAC01088CA5010864
:1024200054AC0108A0A5010848A8010858A8010853
:10243000B8A3010858A10108B4A50108D0A3010858
:10244000B44101205CAC0108B6430120F4AA0108A4
:102450002A00000074A10108E8A301082DE9FC4747
:102460000400250026004FF0FF08002E00F01D821A
:10247000DFF8241A280004F005FD0600002E00F005
:10248000148270798DF80400B0798DF805009DF8FC
:1024900005003A2804D19DF804003038804608E051
:1024A0009DF804000A219DF8052001FB002010384A
:1024B00080465FFA88F8DFF8E409C0F82880012038
:1024C000DFF8D81981F836005FFA88F8404600280E
:1024D000032840F2D181001F012840F2DC81801ED8
:1024E000012840F2C981801E012840F2D481801E5B
:1024F00000F0C981401E012840F2CD81801E0128D4
:1025000040F2BA81801E00F0C681401E032840F2CE
:10251000B381001F00F0BF81401E00F0AD81401E5E
:10252000012840F2B881C01E00F0A681401E01289B
:1025300040F2B181801E00F05C81801E00F09C8121
:10254000401E012840F2A781801E012840F294819C
:10255000801E012840F29F81801E00F08D81401E68
:1025600000F09981401E00F08781401E042840F24F
:102570009281401F012840F27F81001F052840F210
:102580007B81801F1CD0801E00F05F81401E27D001
:10259000401E00F0F680401E00F00381001F29D08D
:1025A000801E00F06981401E00F05A81401E00F03C
:1025B0005D81001F00F03381801E00F05D816BE1C2
:1025C000DFF84019280004F05DFC060070798DF8F2
:1025D00000009DF800003038DFF8C01808865BE185
:1025E000B07D8DF800009DF800003038DFF8AC18A1
:1025F000088651E1B248407E002804D0DFF868091F
:1026000001F0C4FF51E1AE48807E002803D00020D5
:10261000A949C86205E00120A94908710120A8491B
:102620008876DFF8E018280004F02CFC0600002E65
:1026300000F0A68070798DF800009DF80000303819
:10264000DFF8581881F83200307A8DF80000707A7F
:102650008DF80100B07A8DF80200F07A8DF8030051
:102660009DF800003A2806D1F0798DF80000307A04
:102670008DF801002EE09DF801003A2809D1F0798B
:102680008DF80000307A8DF80100707A8DF8020024
:1026900020E09DF802003A280CD1F0798DF8000076
:1026A000307A8DF80100707A8DF80200B07A8DF8DA
:1026B00003000FE09DF803003A280BD1F0798DF864
:1026C0000000307A8DF80100707A8DF80200B07A3F
:1026D0008DF803009DF801003A2805D19DF800000F
:1026E0003038754908643EE09DF802003A280BD165
:1026F0009DF800000A219DF8012001FB0020B0F5A3
:1027000004706D4908642EE09DF803003A2812D148
:102710009DF8000064219DF801200A235A4301FB23
:1027200000209DF8021050FA81F0DFF818190818FF
:102730006149086417E09DF800004FF47A719DF834
:10274000012064235A4301FB00209DF802100A2255
:1027500002FB01009DF8031050FA81F0DFF8E81841
:102760000818554908645448006CDFF83017C862EF
:1027700054480069401C5349086100204E490864D0
:102780008AE001204F49887100204E49487100209D
:102790004C49086100204A49487001204849487660
:1027A0007AE000204749887101204649487100209D
:1027B0004349487001204249487641480078012841
:1027C00005D140488079002801D100F03FFB3C480A
:1027D000407C01280CD10520374988650120384903
:1027E00008740120364988743348C06B32498863C5
:1027F00052E0DFF88818280004F044FB060011209E
:102800000700222F06DAF05D2B49394481F8A10038
:102810007F1CF6E701202B4981F823003CE0DFF81C
:102820006018280004F02EFB060011200700222F5C
:1028300006DAF05D2049394481F8A1007F1CF6E7F3
:102840000120204981F8240026E00020DFF8341818
:10285000087000201A4948700120194948761BE089
:102860000720DFF8381681F8360015E00820DFF879
:102870002C1681F836000FE0002011494870012025
:102880000F49487608E00E480079002802D0002061
:102890000B49087100E0FFE74FF400795FF0000A90
:1028A00052464946280000F033FEBDE8F387000099
:1028B000B43F01204051012044490120B44301208C
:1028C000344F0120004F01201CAC010810B504005A
:1028D0002068042858D005285BD008285ED0092835
:1028E00061D00A2864D00B2867D00C286AD00F2842
:1028F0006DD0142871D0162875D0172879D01828D3
:102900007DD01A2800F081801B2800F084801F28C9
:1029100000F08680202800F08980232800F0A9801C
:10292000242800F0AB80262800F0AE80282800F094
:10293000BA80292800F0BD802A2800F0C4802B2806
:1029400000F0C7802C2800F0CA80372800F0CD8026
:102950003A2800F0EC803D2800F02A813E2800F063
:1029600030813F2800F03A81402800F0EA80432877
:1029700000F03A81442800F03C81452800F0438172
:10298000462800F045814AE10120DFF8FC16C877AF
:1029900045E10120DFF8F016087640E10120DFF87C
:1029A000E81648763BE10120DFF8DC16887636E150
:1029B0000120DFF8D416C87631E10120DFF8C8160F
:1029C00008772CE10120DFF8C016887727E1012085
:1029D000DFF8B41681F8200021E10120DFF8A81605
:1029E00081F829001BE10120DFF89C1681F82A00FC
:1029F00015E10120DFF8901681F82B000FE101208E
:102A0000DFF8841681F8210009E10120DFF878164B
:102A100081F8220003E10120DFF86C164877FEE020
:102A20000120DFF8641681F82500F8E0DFF8580689
:102A3000007B401CDFF8501608730120DFF84816B1
:102A400008710120DFF8401681F82600DFF83C0607
:102A5000807901280CD10020DFF830168871002021
:102A6000DFF8281608720120DFF8201681F821000F
:102A7000D5E00020DFF814164872D0E00120DFF81E
:102A8000081681F82E00CAE00020DFF8FC15087156
:102A90000020DFF8F41581F826000120DFF8E815A2
:102AA00081F82700BBE00120DFF8DC1581F8280061
:102AB000B5E00020DFF8CC1508700120DFF8C8155C
:102AC00081F82D00ABE00120DFF8BC1581F82F0064
:102AD000A5E00120DFF8B01581F830009FE001206B
:102AE000DFF8A41581F8310099E0DFF8A005807CBB
:102AF000012807D10020DFF8941588740020DFF842
:102B00008C1508742089DFF888154870DFF8840573
:102B1000DFF87C154978405C002807D00120DFF8F9
:102B20006C15C8740120DFF86415087177E02089FE
:102B3000DFF85C15C8710120DFF8501581F820001E
:102B40006DE06068DFF84815C8630120DFF83C15C8
:102B500048740120DFF834150871DFF82C0540793E
:102B6000002812D1A07A012806D10020DFF81C1518
:102B7000087000F07EF91AE00020DFF810154874A4
:102B80000020DFF80815087111E00120DFF8FC14BF
:102B900008740520DFF8F81488650120DFF8EC14CC
:102BA0008874DFF8EC04C06BDFF8E414886336E067
:102BB0000120DFF8D81448730120DFF8DC14087016
:102BC0002DE00120DFF8C41488730020DFF8CC1456
:102BD00008700020DFF8C014087020E00120DFF842
:102BE000A81481F832001AE00120DFF8A01408725E
:102BF00015E00020DFF8941408720120DFF88C142F
:102C000081F821000BE00120DFF88014C87106E094
:102C10000020DFF87814C87100F004F9FFE710BD58
:102C2000AD410120D450012070B582B006000D00E6
:102C3000140000F085F8DFF858040585DFF850042B
:102C40004462DFF84C0406710A20DFF8501281F864
:102C5000360072B6DFF8480483B06946D0E9002335
:102C6000C1E90023D0E90223C1E902230EBCDFF849
:102C7000340400F0A5FB62B6DFF8240400F036FC53
:102C800073BD000064AC0108825101203C51012059
:102C90006CAC010874AC01088151012070B582B0A0
:102CA00006000D00140000F04BF8DFF8E403C660E6
:102CB000DFF8DC030566DFF8D80384610C20774970
:102CC00081F8360072B6DFF8D80383B06946D0E9E0
:102CD0000023C1E90023D0E90223C1E902230EBC8D
:102CE000DFF8C00300F06CFB62B6DFF8B40300F05D
:102CF000FDFB73BD7CAC010810B582B0040000F090
:102D00001FF80D20654981F83600E4B26348048657
:102D100072B6DFF88C0383B06946D0E90023C1E9BD
:102D20000023D0E90223C1E902230EBCDFF87403BB
:102D300000F046FB62B6DFF8680300F0D7FB13BD76
:102D4000DFF844030078012809D0DFF83C0340781D
:102D5000012806D1DFF83003407B012801D000BFF5
:102D6000EEE7704784AC010870B54FF400640025AD
:102D7000DFF834632A002100300000F0C9FB70BD89
:102D80008CAC01082CAC010894AC010800AB010824
:102D900080B5002004F0B5F8FDF703FB01BD10B5C8
:102DA0000400DFF8E4020079002801D1052034E0B6
:102DB000DFF8D802007A012804D0DFF8D002C07909
:102DC000012801D1102028E00120DFF8C012C872CC
:102DD000A4B2002C05D1DFF8E40201F0D7FB1F20DC
:102DE0001BE04FF47A73220092B2DFF8BC12DFF8D6
:102DF000D00200F027FF002803D0FFF7C9FF0F2003
:102E00000BE00020DFF88412C872DFF88002007B3C
:102E1000002801D1FDF7C5FA002010BD0000000018
:102E2000C8A501080120DFF8641281F82500002000
:102E3000DFF85C12486670470020DFF8501281F816
:102E400025000020DFF848124866704710B50024BE
:102E5000FFF78AFFDFF86C12DFF84C0201F024FB69
:102E6000DFF8440201F03AFB80B2FFF798FF04005C
:102E700010BD10B50024FFF777FFDFF84C12DFF824
:102E8000280201F011FBDFF8200201F027FB80B2DD
:102E9000FFF785FF040010BD14AC0108404B012072
:102EA0002DE9F04104000025FFF75EFFE4B22200A7
:102EB00086497D4801F0F8FA0020734981F8260020
:102EC000794801F00BFB80B2FFF769FF0500EDB216
:102ED000002D02D02800C0B211E01B260027DFF829
:102EE000F0813A003100404600F012FB664890F84D
:102EF0002600012801D000BFF8E72800C0B2BDE8D5
:102F0000F08100009CAC01082DE9F04704008846E0
:102F10000026FFF729FF22006449634801F0C4FA44
:102F2000614801F0DBFA80B2FFF739FF0600F6B224
:102F3000002E15D1FDF780FF06005D4801F0CEFAA6
:102F400005005B4F2A003900404601F0E3FA5FF0CC
:102F50000009DFF85CA14A462900504600F0D8FA83
:102F60003000C0B2BDE8F087A4AC010870B5040021
:102F70000D000026FFF7F8FE2B00220055494A48B5
:102F800001F092FA484801F0A9FA80B2FFF707FF72
:102F90000600F6B2002E02D1FDF74EFF060030000B
:102FA000C0B270BD70B504000D000026FFF7DCFE56
:102FB0002B00220048493C4801F076FA3A4801F0DB
:102FC0008DFA80B2FFF7EBFE0600F6B2002E02D1BA
:102FD000FDF732FF06003000C0B270BD38B5040006
:102FE0000025FFF7C1FE220032492F4801F05CFAAC
:102FF0002D4801F073FA80B2FFF7D1FE0500EDB263
:10300000002D02D1FDF718FF05002800C0B232BD27
:1030100038B504000025FFF7A7FE22002649224804
:1030200001F042FA204801F059FA80B2FFF7B7FEEA
:103030000500EDB2002D02D1FDF7FEFE05002800CF
:10304000C0B232BD30EBFFFFB02FFFFF10B5002440
:10305000FFF78AFE2149144801F026FA124801F0D0
:103060003DFA80B2FFF79BFE0400E4B2002C02D1CF
:10307000FDF7E2FE04002000C0B210BD0CAB010859
:1030800018AB01087E510120004F0120344F012070
:1030900044490120CC5001207F5101208051012062
:1030A000684B0120544B0120A80E012068A801089C
:1030B000B5490120DCA50108589F0108789F010847
:1030C000284D0120ACAC0108B4AC010824AB0108C8
:1030D000184F0120F0A5010804A60108BCAC0108A6
:1030E00070470268531C03601170704781600022B2
:1030F00002600022C260002242608C4A0261704776
:1031000001008A68C868B2F16403984201DB0120BB
:1031100000E0002070470100C868652801DA01203E
:1031200000E00020704701008A68C868904201D121
:10313000012000E0002070470100C868002801D18C
:10314000012000E0002070472DE9F04104000D004F
:103150002000FFF7E8FF002816D1E068401CE0607F
:1031600060680127216901EB00083A002900404608
:1031700001F0D0F96068401C6060A06806006068DB
:10318000B04201DB00206060BDE8F0812DE9F04F26
:1031900083B00400664805002000FFF7CDFF00283B
:1031A00001D00020BEE04FF400760027DFF88081D8
:1031B0003A003100404600F0ABF95E48007C002840
:1031C00000F09480D4F804B0E068B0F5007F30DA05
:1031D000E06859494865206883450BDB20685649FB
:1031E0004E6D216901EB000732003900280001F023
:1031F00091F919E026682068D6F58067216901EB0E
:1032000000083A004146280001F084F92068D4F80B
:103210001090404228444FF4806100EB010A5A4666
:103220004946504601F076F9606820600020E06071
:1032300077E02068834513DB206840F2FF162169A0
:1032400001EB000732003900280001F063F9206823
:1032500000F2FF1020602068BBEB0000E06040E05F
:10326000206800F2FF10B0F5806F15DA206840F298
:10327000FF16216901EB000732003900280001F038
:1032800049F9206800F2FF1020602068D0F58060C6
:103290001BEB0000E06024E026682068D6F5806122
:1032A0000191216901EB0007019A3900280001F022
:1032B00031F92068A6F20128D4F810904042284441
:1032C0004FF4806100EB010A42464946504601F046
:1032D00021F92068A0F2012020602068BBEB0000EB
:1032E000E06040F2FF10144948651AE020680126AA
:1032F000216901EB000732003900280001F00AF9CA
:103300002068401C2060E068401EE06001200A49FF
:103310004865A068009020680099884201DB002081
:1033200020602800BDE8FE8F000000007823012007
:10333000B4410120344F01204449012010B44268B7
:1033400003685B1A002B0FD403685B1A03600368E1
:10335000934203DA0368D31AC3600FE00368D3F51E
:103360008063D318C36009E00368D1F58064E31873
:1033700003600368D3F58063D318C36010BC704743
:1033800010231A0001FB02F3836000230360002373
:10339000C36000234360534B0361704701008A6898
:1033A000C868B0EB121F01D1012000E00020704777
:1033B0000100C868002801D1012000E0002070470A
:1033C0000EB478B504002000FFF7E8FF00283CD1D8
:1033D00060680009060020693101084406994160CF
:1033E0002069310108449DF81E1081722069310165
:1033F00008449DF81F10C1722069310108449DF8EE
:1034000020100173206931010844BDF81C100181AE
:1034100005982169320188502069310108449DF8DE
:10342000221081732069310108449DF821104173F5
:10343000E068401CE060606810306060A0680500D3
:103440006068A84201DB0020606071BC5DF810FB81
:1034500070B504002000FFF7ABFF002801D000206A
:103460003FE02068000906002069310108444068F7
:103470001D494860206931010844C07A1A49C87260
:10348000206931010844007B174908732069310124
:103490000844008914490881206931010844807A70
:1034A000114988722069310140580F49086020692C
:1034B00031010844807B0C4988732069310108443C
:1034C000407B09494873206810302060E068401E46
:1034D000E060A06805002068A84201DB00202060B1
:1034E000014870BD782701208450012000214160EF
:1034F0000021C17200218173002101730921018122
:1035000009218172632101600121417370472C0000
:1035100062F30F2262F31F42401810F0030308D039
:10352000C91A1FD3DB0748BF00F8012D28BF20F8B8
:10353000022D130030B414461546103928BF20E977
:103540003C00FAD8490728BF20E90C0048BF40F8E2
:10355000042D890028BF20F8022D48BF00F8012D56
:1035600030BC7047C91818BF00F8012DCB0728BF21
:1035700000F8012D70473D0010B50400002C01D16A
:10358000012014E094F83900002805D1002084F8C7
:103590003800200003F0D0FD022084F83900211DFE
:1035A000206800F0CFF8012084F83900002010BD19
:1035B00001000868C06850F001000A68D06008681F
:1035C000006850F001000A6810600020704710B5D4
:1035D00004002068006980071AD52068C068800749
:1035E00016D57FF00200216808610120207620684E
:1035F000806910F0030F03D0200003F059FE05E0AE
:10360000200003F056FE200003F054FE0020207638
:103610002068006940071AD52068C068400716D5A1
:103620007FF004002168086102202076206880690C
:1036300010F4407F03D0200003F03AFE05E02000A4
:1036400003F037FE200003F035FE002020762068CE
:10365000006900071AD52068C068000716D57FF0FA
:10366000080021680861042020762068C06910F0F5
:10367000030F03D0200003F01BFE05E0200003F041
:1036800018FE200003F016FE002020762068006956
:10369000C0061AD52068C068C00616D57FF0100095
:1036A00021680861082020762068C06910F4407FF6
:1036B00003D0200003F0FCFD05E0200003F0F9FD3D
:1036C000200003F0F7FD0020207620680069C00785
:1036D0000AD52068C068C00706D57FF001002168C0
:1036E0000861200003F01EFE2068006900060AD56C
:1036F0002068C068000606D57FF080002168086158
:10370000200003F039FE2068006940060AD52068D1
:10371000C068400606D57FF040002168086120009F
:1037200003F02BFE2068006980060AD52068C06877
:10373000800606D57FF0200021680861200003F094
:103740001DFE10BD002203681A00DFF89430984275
:103750000CD0B0F1804F09D0DFF88830984205D006
:10376000214B984202D0214B984201D1012300E025
:103770000023DBB2002B03D032F070024B681A43F7
:10378000174B984214D0B0F1804F11D0154B98428E
:103790000ED0154B98420BD0144B984208D0144BC6
:1037A000984205D0134B984202D0134B984201D156
:1037B000012300E00023DBB2002B03D032F440727F
:1037C000CB681A4302608B68C3620B688362044B48
:1037D000984201D10B6903630123436170470000E4
:1037E000000001400004004000080040000C0040C0
:1037F000004001400044014000480140F8B400236B
:103800000024002500263200102A80F0D8800126EE
:10381000964033000E681E4034009C4240F0CD803C
:103820004E68022E02D04E68122E16D1D60800EB3A
:103830008606366A35000F2612F00707FFB2BF0072
:10384000BE40B5430E6912F00707FFB2BF00BE408D
:103850003543D60800EB8606356206683500032638
:103860001700FFB27F00BE40B5430E7916F0030685
:103870001700FFB27F00BE40354305604E68012E41
:1038800008D04E68022E05D04E68112E02D04E6828
:10389000122E19D18668350003261700FFB27F006B
:1038A000BE40B543CE681700FFB27F00BE4035432F
:1038B00085604668350001269640B5434E68C6F3DC
:1038C0000016964035434560C6683500032617004C
:1038D000FFB27F00BE40B5438E681700FFB27F0085
:1038E000BE403543C5604E68F60066D5002600969A
:1038F000974E366856F48046954F3E60944E366833
:1039000016F480460096009E924E970856F827605F
:1039100035000F2612F00307FFB2BF00BE40B543CB
:103920008D4EB04201D1002614E08C4EB04201D140
:1039300001260FE08A4EB04201D102260AE0894EEC
:10394000B04201D1032605E0874EB04201D10426E2
:1039500000E00726F6B212F00307FFB2BF00BE4038
:1039600035437C4E970846F82750804E3668350020
:10397000A5434E68F60300D525437C4E35607C4E4A
:1039800036683500A5434E68B60300D52543784E0A
:103990003560784E36683500A5434E68F60200D58E
:1039A0002543744E3560744E36683500A5434E6825
:1039B000B60200D52543704E3560521C24E7F1BC99
:1039C0007047F0B500220023002400263500102D9A
:1039D00080F098800126AE40320012EA01063300E2
:1039E000934240F08D8006680327AC465FFA8CFC5A
:1039F0005FEA4C0C17FA0CF7BE430660EE0800EBCA
:103A00008606EF0800EB87073F6A5FF00F0C15F0A2
:103A1000070E5FFA8EFE5FEA8E0E1CFA0EFC37EA86
:103A20000C07376286680327AC465FFA8CFC5FEAB6
:103A30004C0C17FA0CF7BE43866046680127AF406E
:103A4000BE434660C6680327AC465FFA8CFC5FEA5B
:103A50004C0C17FA0CF7BE43C6603E4EAF0856F842
:103A6000276034000F2615F00307FFB2BF00BE40E9
:103A70003440394EB04201D1002614E0374EB042F6
:103A800001D101260FE0364EB04201D102260AE0F4
:103A9000344EB04201D1032605E0334EB04201D18D
:103AA000042600E00726F6B215F00307FFB2BF00B8
:103AB000BE40B44224D10F2615F00307FFB2BF0069
:103AC000BE403400234EAF0856F82760A643214F6E
:103AD0005FEA950C47F82C60244E36689E43234FCE
:103AE0003E60234E36689E43214F3E60214E36682D
:103AF0009E43204F3E60204E36689E431E4F3E60E0
:103B00006D1C64E7F0BD0200136989B20B4202D05C
:103B10000123180001E000231800C0B27047D2B2A0
:103B2000002A02D089B2816102E089B20B0483616C
:103B3000704710B5040011480068A4B2204206D0B6
:103B4000A4B20E480460200080B200F019F810BD45
:103B5000443802400838014000000240000402409E
:103B600000080240000C024000100240003C0140EE
:103B7000043C0140083C01400C3C0140143C014025
:103B8000704711B581B0002403F0FAFB040003F084
:103B9000F7FB001B01998842F9D313BD10B504004F
:103BA000002C01D1012033E0A0690028FFD194F856
:103BB0003900002805D1002084F83800200003F0E7
:103BC00031FA242084F839002068C06830F40050AD
:103BD0002168C860200000F0D8FA2068006930F43D
:103BE0009040216808612068406930F02A0021680F
:103BF00048612068C06850F400502168C860002007
:103C0000E063202084F83900202084F83A00002066
:103C100010BD10B50400002C01D1012011E02420BA
:103C200084F83900200003F068FA0020E0630020E7
:103C300084F83900002084F83A00002084F8380025
:103C4000002010BD2DE9F84304000D0016001F00F0
:103C50005FF0000994F8390020285FD1002D02D0D0
:103C6000B6B2002E01D1012059E094F838000128A5
:103C700001D1022053E0012084F838000020E063E5
:103C8000212084F8390003F07BFB8146A684E6847A
:103C9000E08C00282FD0E08C401EE084A068B0F5B6
:103CA000805F18D100974B4600228021200000F051
:103CB00081F9002801D0032031E0A846B8F80000BF
:103CC000C005C00D216848602069002801D1AD1CE5
:103CD000DEE76D1CDCE700974B46002280212000C8
:103CE00000F068F9002801D0032018E02878216846
:103CF00048606D1CCCE700974B4600224021200015
:103D000000F058F9002801D0032008E0202084F8B2
:103D10003900002084F83800002000E00220BDE8CF
:103D2000F2832DE9F84304000D0016001F005FF038
:103D3000000994F83A00202864D1002D02D0B6B2D0
:103D4000002E01D101205EE094F83800012801D155
:103D5000022058E0012084F838000020E06322208F
:103D600084F83A0003F00CFB8146A685E685E08DD9
:103D700000283FD0E08D401EE085A068B0F5805F50
:103D80001ED100974B4600222021200000F012F99E
:103D9000002801D0032036E0A8462069002807D17A
:103DA00020684068C005C00DA8F80000AD1CDEE723
:103DB0002068406800F0FF00A8F800006D1CD6E7FE
:103DC00000974B4600222021200000F0F3F8002845
:103DD00001D0032017E02069002804D12068406842
:103DE00028706D1CC3E72068406810F07F002870C1
:103DF0006D1CBCE7202084F83A00002084F83800CD
:103E0000002000E00220BDE8F28310B4030093F824
:103E10003A00202828D1002902D092B2002A01D1EC
:103E2000012022E093F83800012801D102201CE093
:103E3000012083F8380099629A85DA850020D863DA
:103E4000222083F83A00002083F83800186840697F
:103E500050F001001C6860611868C06850F49070F0
:103E60001C68E060002000E0022010BC70472DE9D3
:103E7000F8430400206805682068C6682068476920
:103E80005FF000085FF0000915F00F008046B8F100
:103E9000000F07D1A80605D5B00603D5200000F015
:103EA00023F985E0B8F1000F72D0F80702D416F4B8
:103EB000907F6DD015F00100C0B2002805D0F0054C
:103EC00003D5E06B50F00100E063680708D517F0F8
:103ED0000100C0B2002803D0E06B50F00200E063A4
:103EE000A80708D517F00100C0B2002803D0E06B86
:103EF00050F00400E063280708D517F00100C0B2B5
:103F0000002803D0E06B50F00800E063E06B00286D
:103F10003DD0A80604D5B00602D5200000F0E4F894
:103F200020684069800910F001008146E06B0007BD
:103F300002D4B9F1000F25D0200000F073F82068FA
:103F4000406940061AD52068406930F04000216879
:103F50004861606B00280DD00FF2E900616B0865C5
:103F6000606B03F013FA002811D0606B616B096D70
:103F700088470CE0200003F0E7F908E0200003F098
:103F8000E3F904E0200003F0DFF90020E0630FE034
:103F9000280605D5300603D5200000F05EF807E0BE
:103FA000680605D5700603D5200000F08DF8FFE700
:103FB000BDE8F1832DE9F04104000D0016001F005B
:103FC000DDF81880206800682840A84201D101204F
:103FD00000E00020F6B2B04221D118F1010FF1D07B
:103FE000B8F1000F04D003F0CBF9C01B8045E9D233
:103FF0002068C06830F4D0702168C86020684069CB
:104000004008400021684861202084F839002020C1
:1040100084F83A00002084F83800032000E00020F3
:10402000BDE8F0810168C96831F490710268D1601F
:10403000016849694908490002685161202180F8F6
:104040003A10704738B50400A56B0020E8850020C1
:10405000E884280003F078F931BD010091F83900B7
:1040600021282FD18868B0F5805F11D1086A02003D
:104070001088C005C00D0B6858600869002803D17E
:10408000086A801C086209E0086A401C086205E0B2
:10409000086A431C0B6200780B685860C88C401E8D
:1040A000C88480B200280BD10868C06830F0800056
:1040B0000B68D8600868C06850F040000B68D86092
:1040C000002000E00220704710B504002068C0689E
:1040D00030F040002168C860202084F839002000BA
:1040E00003F02CF9002010BD38B5040094F83A0014
:1040F000222848D1A068B0F5805F16D1A06A0500DB
:104100002069002808D120684068C005C00D2880BB
:10411000A06A801CA0621AE02068406800F0FF00DE
:104120002880A06A401CA06211E02069002806D106
:10413000A06A411CA16221684968017007E0A06A79
:10414000411CA1622168496811F07F010170E08D76
:10415000401EE08580B2002813D12068C06830F48A
:1041600090702168C860206840694008400021685C
:104170004861202084F83A00200003F0D9F800209C
:1041800002E0002000E0022032BD2DE9F8430400E7
:10419000002520680069050035F44055E0680543B6
:1041A000206805612068C0680500BC480540A0681B
:1041B0002169084361690843E169084305432068B0
:1041C000C56020684069050035F44075A069054365
:1041D00020684561E069B0F5004F40F0B08020688C
:1041E000AF49884203D02068AE49884253D103F0DA
:1041F000BCF9814603F0B9F9804603F0B6F907002F
:1042000003F0B3F9060003F0B0F9192101FB09F13D
:1042100062685200B1FBF2F16422B1FBF2F11922A3
:1042200002FB08F263685B00B2FBF3F2192303FBA5
:1042300007F367687F00B3FBF7F36427B3FBF7F37B
:10424000642707FB1322D20032326423B2FBF3F25D
:10425000520012F4F87212EB0111192202FB06F25D
:1042600063685B00B2FBF3F21923584363685B0099
:10427000B0FBF3F06423B0FBF3F0642303FB1020E6
:10428000C00032306422B0FBF2F010F0070040189A
:104290002168886000E103F058F9814603F055F980
:1042A000804603F052F9070003F04FF9060003F0CF
:1042B0004CF9192101FB09F162685200B1FBF2F1DE
:1042C0006422B1FBF2F1192202FB08F263685B0081
:1042D000B2FBF3F2192303FB07F367687F00B3FB1C
:1042E000F7F36427B3FBF7F3642707FB1322D2002D
:1042F00032326423B2FBF3F2520012F4F87212EB82
:104300000111192202FB06F263685B00B2FBF3F2B3
:104310001923584363685B00B0FBF3F06423B0FBE0
:10432000F3F0642303FB1020C00032306422B0FBA2
:10433000F2F010F00700401821688860ACE02068B7
:104340005749884203D020685649884252D103F029
:104350000CF9814603F009F9804603F006F90700DD
:1043600003F003F9060003F000F9192101FB09F13C
:1043700062689200B1FBF2F16422B1FBF2F1192202
:1043800002FB08F263689B00B2FBF3F2192303FB04
:1043900007F36768BF00B3FBF7F36427B3FBF7F3DA
:1043A000642707FB1322120132326423B2FBF3F2BB
:1043B00012F0F00212EB0111192202FB06F26368FF
:1043C0009B00B2FBF3F21923584363689B00B0FBD8
:1043D000F3F06423B0FBF3F0642303FB102000012F
:1043E00032306422B0FBF2F010F00F004018216868
:1043F000886051E003F0A9F8814603F0A6F88046F2
:1044000003F0A3F8070003F0A0F8060003F09DF8FE
:10441000192101FB09F162689200B1FBF2F16422FB
:10442000B1FBF2F1192202FB08F263689B00B2FBB8
:10443000F3F2192303FB07F36768BF00B3FBF7F33D
:104440006427B3FBF7F3642707FB13221201323210
:104450006423B2FBF3F212F0F00212EB0111192205
:1044600002FB06F263689B00B2FBF3F21923584388
:1044700063689B00B0FBF3F06423B0FBF3F06423AC
:1044800003FB1020000132306422B0FBF2F010F088
:104490000F00401821688860BDE8F183F369FFFFD1
:1044A00000100140001401400CB41CB5044604A8DF
:1044B00001900A46009401AB6946074878441830D9
:1044C00003F0CAF8009A0021117000285CBF009820
:1044D000001B16BC5DF80CFB0BECFFFF00F10103A9
:1044E000810704D010F8011B89B18107FAD1026855
:1044F000B2F10131914311F0803F04BF50F8042F15
:10450000F6E710F8011B11B110F8011BFBE7C01A08
:104510007047200062B38B0708D0521E11F8013B90
:1045200000F8013B00F024808B07F6D1830740F0B0
:10453000208000BF103A07D330B4B1E83810103AE9
:10454000A0E83810F9D230BC530724BFB1E80810F6
:10455000A0E8081044BF51F8043B40F8043BD207E0
:1045600024BF31F8022B20F8022B44BF0B780370D4
:104570007047083A07D3B1E80810083A40F8043BFE
:1045800040F804CBF7D25307E4E700200EB400B59F
:1045900082B003A9009102466B460121034878448A
:1045A0000A3003F059F806BC5DF810FB555E0100B7
:1045B00070B504000026FBF7EDFD012000F0A4FB20
:1045C000FBF77FFE0021DFF8D005FEF7EBFC0600CD
:1045D000F6B2002E02D03000C0B221E2FEF7C4FBDA
:1045E000DFF82416DFF8F406FFF75EFFDFF8EC06CD
:1045F000FFF774FF80B2FEF7D2FB0600F6B2002E82
:1046000008D1FCF719FC0600F6B2002E02D03000EB
:10461000C0B205E20121DFF8F405FEF7C3FC060095
:10462000F6B2002E02D03000C0B2F9E1206B0028B3
:104630000BD0216BDFF8D805FEF7B4FC0600F6B20C
:10464000002E02D03000C0B2EAE10021DFF8C4053C
:10465000FEF7A8FC0600F6B2002E02D03000C0B271
:10466000DEE12078002802D001281AD033E00021B2
:10467000DFF8A405FEF796FC0600F6B2002E02D085
:104680003000C0B2CCE1DFF89415DFF89405FEF7F6
:104690006DFC0600F6B2002E02D03000C0B2BFE1C1
:1046A00019E00121DFF87005FEF77CFC0600F6B288
:1046B000002E02D03000C0B2B2E1DFF86815DFF89A
:1046C0006005FEF753FC0600F6B2002E02D0300063
:1046D000C0B2A5E1FFE76078002803D0022857D0D8
:1046E00019D392E00021DFF84005FEF75BFC0600DD
:1046F000F6B2002E02D03000C0B291E10021DFF806
:104700002C05FEF74FFC0600F6B2002E02D030005A
:10471000C0B285E179E00121DFF80C05FEF742FC2B
:104720000600F6B2002E02D03000C0B278E10B21B4
:10473000DFF8AC05FEF736FC0600F6B2002E02D01C
:104740003000C0B26CE10021DFF89805FEF72AFCCA
:104750000600F6B2002E02D03000C0B260E10021A7
:10476000DFF88405FEF71EFC0600F6B2002E02D02C
:104770003000C0B254E10021DFF8B004FEF712FCB3
:104780000600F6B2002E02D03000C0B248E13CE094
:104790000121DFF89404FEF705FC0600F6B2002EB6
:1047A00002D03000C0B23BE10C21DFF83405FEF747
:1047B000F9FB0600F6B2002E02D03000C0B22FE1A5
:1047C0000A21DFF82005FEF7EDFB0600F6B2002E09
:1047D00002D03000C0B223E10121DFF80C05FEF762
:1047E000E1FB0600F6B2002E02D03000C0B217E1A5
:1047F0000121DFF83804FEF7D5FB0600F6B2002EE3
:1048000002D03000C0B20BE1FFE7A07800280328F7
:1048100012D8A078062110FB01F00500EDB22900A6
:10482000DFF8C804FEF7BEFB0600F6B2002E02D089
:104830003000C0B2F4E0FFE7E078002802280CD88E
:10484000E178DFF8AC04FEF7ADFB0600F6B2002E0F
:1048500002D03000C0B2E3E0FFE7606800280BD070
:104860006168DFF89004FEF781FB0600F6B2002EC7
:1048700002D03000C0B2D3E0A06800280BD0A168FD
:10488000DFF87404FEF772FB0600F6B2002E02D0C9
:104890003000C0B2C4E0E06800280BD0E168DFF867
:1048A0005C04FEF763FB0600F6B2002E02D0300077
:1048B000C0B2B5E0206900280BD02169DFF84004C0
:1048C000FEF754FB0600F6B2002E02D03000C0B254
:1048D000A6E0606900280BD06169DFF82804FEF7C4
:1048E00045FB0600F6B2002E02D03000C0B297E0C1
:1048F000E06900280BD0E169DFF87804FEF736FBA9
:104900000600F6B2002E02D03000C0B288E0206A65
:1049100000280BD0216ADFF86004FEF727FB0600B1
:10492000F6B2002E02D03000C0B279E0606A0028F2
:104930000FD0606A4FF47A7101FB00F1DFF83C049C
:10494000FEF730FB0600F6B2002E02D03000C0B2F7
:1049500066E0A06A00280BD0A16ADFF82404FEF705
:1049600021FB0600F6B2002E02D03000C0B257E0A4
:1049700094F82C0000280CD094F82C10DFF80404D4
:10498000FEF710FB0600F6B2002E02D03000C0B2D7
:1049900046E0FEF7E9F9DFF8F013DFF84003FFF730
:1049A00083FDDFF83803FFF799FD80B2FEF7F7F9D2
:1049B0000600F6B2002E08D1FCF73EFA0600F6B269
:1049C000002E02D03000C0B22AE0FEF7CDF9DFF8A9
:1049D000BC13DFF80803FFF767FDDFF80003FFF7FC
:1049E0007DFD80B2FEF7DBF90600F6B2002E08D19D
:1049F000FCF722FA0600F6B2002E02D03000C0B258
:104A00000EE0206B002804D0206B03F00DFFFBF7B5
:104A1000C8FCFBF756FC002000F076F93000C0B26D
:104A200070BD2DE9F04104000D0016001F005FF07D
:104A30000008320029002000FEF730F9FCF7FCF9ED
:104A40008046DFF84C03007838704046C0B2BDE8BD
:104A5000F081F8B504000D0016000027DFF83803D8
:104A6000E4B2005D002801D1052014E0ADB2B5F537
:104A70007F7F02DCADB2002D01D104200BE03200BB
:104A8000290089B22000C0B2FEF7CEF8FCF7D4F9B5
:104A900007003800C0B2F2BD38B50400002500F0B0
:104AA00072F8A4B22300DFF8E8024278DFF8EC12D3
:104AB000DFF82802FFF7F8FCDFF82002FFF70EFD11
:104AC00080B2FEF76CF90500EDB2002D18D1DFF8C9
:104AD000D0020079002803D10120DFF8C412087148
:104AE000A4B2DFF8AC0284630120DFF8B41288744A
:104AF0000520DFF89C1288650120DFF8A4120874F5
:104B00002800C0B232BD38B5040000250020DFF80F
:104B1000901281F82900DFF88002E4B2005D0028DD
:104B200006D02000C0B2FEF7E7F82800C0B200E0CF
:104B3000022032BD10B50024FEF716F900F023F86C
:104B4000DFF85402DFF848124978405C002819D099
:104B5000DFF84C020079002803D10120DFF8401271
:104B60000871DFF82C024278DFF83812DFF82402EF
:104B7000FFF79AFCDFF81C02FFF7B0FC80B2FEF7EB
:104B80000EF9040010BDDFF820028079002801D161
:104B900000BFF8E77047000070AA010870B5040074
:104BA0000D000026DFF804020460ADB2B5F5807F89
:104BB00001DD042025E0DFF8D801C570DFF8E00151
:104BC000407A002801D007201BE00120DFF8D01137
:104BD0004872FEF7C9F8DFF8D811DFF8B801FFF71F
:104BE00063FCDFF8B001FFF779FC80B2FEF7D7F87D
:104BF0000600F6B2002E02D1FCF71EF906003000C6
:104C0000C0B270BD00000000F4AB010878A7010835
:104C100088A701087CAA010898A7010888AA0108AA
:104C200000A5010894AA0108A8A70108B8A70108CF
:104C3000F8B504000D0016000027DFF86401807A43
:104C4000002806D10120DFF858118872002D0BD002
:104C500001E0072040E02800FEF7DAF90700FFB284
:104C6000002F01D0092037E0002C04D02000FEF7EF
:104C7000B5F9070005E0DFF83C018068FEF7AEF902
:104C80000700FFB2002F01D0082025E0F6B2310066
:104C9000DFF82401FEF786F90700FFB2002F01D0EC
:104CA0000A2019E00121DFF81401FEF77BF9070063
:104CB000FFB2002F01D00A200EE0FEF7C7F9012055
:104CC000DFF8DC10C8700120FEF7EAF80020DFF8FA
:104CD000D01088723800C0B2F2BD0000A80E0120CA
:104CE00040A3010814A5010858A30108C8A701089A
:104CF000A0AA0108ACAA0108B8AA0108FCAB0108E7
:104D000004AC0108C4AA010838B50400002500203D
:104D10000090DFF8AC00006850F0040028490860FB
:104D20002748006810F00400009000984FF480704D
:104D300024490860012023494860002021498860F7
:104D400003202049C8601F491F48FEF757FDE4B201
:104D5000002C06D001224FF480711B48FEF7DFFEC5
:104D600005E000224FF480711748FEF7D8FE2800B6
:104D7000C0B232BDD8A70108E8A70108E8A0010821
:104D8000F8A7010828A5010804A101080CAC010836
:104D900044490120A80E0120CC5001203CA5010867
:104DA000344F012008A80108004F01203C51012088
:104DB000D0AA0108CC4E012018A801087CAA01083D
:104DC000303802400850012000080240694800685D
:104DD000401C6849086070474168664A1268891A31
:104DE000002901D5012000E00020C0B27047614ACF
:104DF00012688A18426070475E4A12684FF47A73EC
:104E000003FB01224260704741685A4A1268891ABE
:104E1000002901D50021FFE708007047002141600B
:104E20000021544A11607047F8B504000D001600C7
:104E30001F00514B3A0031002800FFF7F2FD4F49A7
:104E400008704D48007820605FF0FF304C490870D2
:104E50004A480078002809D14A4803F0A6FD0120FD
:104E600047490870464890F9000002E0444890F92C
:104E70000000F2BD10B504002068C0B2FFF743FE89
:104E800010BDF8B504000D0016001F005FF0FF30E4
:104E90003B4908702A003000010089B22068C0B286
:104EA000FFF7D7FD002803D0354890F9000000E057
:104EB0003000F2BD2DE9F04104000D0016001F0086
:104EC000304803F06FFD8046B8F1010F0FDBB045AD
:104ED00006DB320029002B4803F072FD300007E0AA
:104EE00042462900274803F06BFD404600E00020C1
:104EF000BDE8F081002101602349416023498160C0
:104F00002349C16070472DE9F04104000D001600EF
:104F10001F00B6F5007F03D91E48FFF737FB26E0D8
:104F2000BE4207D1DFF870803A0029004046FFF703
:104F3000F1FA17E018481949096800EB01083A002E
:104F400029004046FFF7E6FA14480068381813496C
:104F5000086012480068B04203D100200F49086081
:104F600000E004E032000C49064803F084FDBDE88F
:104F7000F08100002C5101207B5101207C51012047
:104F80007D510120A4350120B54E0008834E000854
:104F9000754E0008F48D0108B43D01202851012010
:104FA0002DE9FE4300245FF4E12000F079FC0128A4
:104FB00005D0DFF8680AFFF7E9FA0020E0E2DFF841
:104FC000600AFFF7E3FA4FF47A70FEF7DAFDDFF8D4
:104FD000540AFFF7DBFADFF8500AFFF7D7FADFF8D9
:104FE0004C0AFFF7D3FADFF8480AFFF7CFFA00239D
:104FF00001220221DFF8240BFFF7C8FADFF8000CCA
:1050000003F0B9FD00F076FCDFF8281B087040B211
:10501000002819D5DFF8200BFFF7B8FADFF8140BDA
:1050200090F9000010F1040F09D1DFF8280BFFF709
:10503000ADFA7FF00400DFF8FC1A08700CE0DFF82E
:10504000F40A90F900009BE26420DFF8E81A087087
:10505000DFF8100BFFF79AFA01F0A2FD4FF47A7017
:10506000FEF78FFD00F0E6FCDFF89C1B087040B2F5
:10507000002808D5DFF8F00AFFF788FADFF8880B78
:1050800090F900007CE2DFF8E40AFFF77FFADFF82E
:10509000E01ADFF8E00A006803F0C0FE012804D13E
:1050A000DFF8C40AFFF772FAFEE74FF47A70FEF7F2
:1050B00068FD01F01FF8002804D1DFF8240BFFF78A
:1050C00065FAFEE7DFF8780D0078002852D0012855
:1050D00051D0022800F04082032800F0F08005281B
:1050E00000F0468208280CD0092800F0E9800B283F
:1050F00000F02B810C2800F09B810D2800F0CD8161
:105100003DE2DFF8080BFFF741FADFF8040BFFF789
:105110003DFAD7A0FFF73AFADFF8F80AFFF736FAB8
:10512000D3A0FFF733FA42F21070FEF72AFDDFF842
:10513000E80A0278DFF8DC1ADFF8D40AFFF778FD16
:105140000400E4B2002C08D0DFF8D00AFFF71EFA02
:105150000820DFF8EC1C08700BE0DFF8C40AFFF74A
:1051600015FADFF8AC0AFFF711FA0220DFF8D01CBD
:10517000087004E203E21420FEF703FD2021DFF8AB
:10518000A40AFFF70BFD0400E4B2002C40F08E806F
:10519000DFF8941ADFF88C0D03F08CFE002804D1A0
:1051A0000020DFF8741A08700FE0B2A1DFF8740D68
:1051B00003F080FE002804D10120DFF85C1A08709B
:1051C00003E00220DFF8501A087000200600202EAD
:1051D00038D2DFF83C1ADFF84C0A2C2202FB06F228
:1051E0001044083001F04EFE002829D00120DFF8DD
:1051F0003C1A08700427DFF84C8CDFF8289D3A0031
:1052000041464846FFF786F9DFF80C0A0278DFF8D6
:10521000041ADFF8FC09FFF70BFD0400E4B2002CD0
:1052200005D0DFF80C0AFFF7B1F90020A8E1DFF89C
:10523000040AFFF7ABF9DFF8D809FFF7A7F901E097
:10524000761CC4E7DFF8E4090078002822D1DFF8F3
:10525000E809FFF79BF9DFF8B809FFF797F9DFF8DE
:10526000B8090278DFF8AC19DFF8A409FFF7E0FC11
:105270000400E4B2002C05D0DFF8A009FFF786F99E
:1052800000207DE1DFF8B409FFF780F9DFF880093D
:10529000FFF77CF94FF4B0675FF00008DFF88499FE
:1052A000424639004846FEF733F903E0DFF890093B
:1052B000FFF76CF90220DFF8881B08705FE15EE100
:1052C000DFF88039DFF8800BD0F88422DFF8781916
:1052D000DFF83C0CFFF7A8FD00281AD5DFF86C09B1
:1052E000FFF754F9DFF86009FFF750F960A0FFF706
:1052F0004DF9DFF85009FFF749F95DA0FFF746F9CE
:105300000920DFF83C1B08704FF4FA60FEF739FC07
:105310001AE04FF400700290DFF8300B01904FF468
:1053200000700090DFF8283B4FF47A62DFF8E01B52
:10533000DFF8AC0B03F023FE0B20DFF8041B087032
:10534000DFF8100BFFF722F919E10320DFF8081B43
:105350000872DFF8080BDFF8001BC860DFF8000BED
:10536000DFF8F41A0864DFF8FC0ADFF8EC1AC86406
:10537000DFF8E41ADFF8680B04F034F805006DB2CA
:10538000002D37D06DB22900DFF8580BFFF7FEF87B
:105390006DB2012D07D01ED3032D0ED008D3052DDD
:1053A00015D00FD317E0DFF86C0BFFF7EFF812E022
:1053B000DFF8640BFFF7EAF80DE0DFF8600BFFF7AA
:1053C000E5F808E0DFF8580BFFF7E0F803E0DFF856
:1053D0005C0BFFF7DBF8DFF8380BFFF74BFD09201C
:1053E000DFF85C1A08704FF4FA60FEF7CAFB00F0B1
:1053F000C0FF18E0DFF8500A90F88902002808D1B1
:10540000DFF82C0BFFF7C2F80D20DFF8341A087014
:1054100007E0DFF8200BFFF7B9F80C20DFF8201ABF
:10542000087000F0A1FF40F2DC50FEF7AAFBA6E0F6
:10543000DFF8040BFFF7AAF8DFF8000BFFF7A6F878
:10544000DFF8FC0AFFF7A2F8DFF8F83ADFF8F8090E
:1054500090F84021DFF8E81ADFF8840A04F029F810
:10546000002809D5DFF8E00AFFF790F80CE000BF4C
:105470000D0A000057455000DFF8D00AFFF786F804
:10548000DFF8BC0AFFF782F840F2DC50FEF779FB48
:105490000D20DFF8AC19087071E0DFF8740B00F034
:1054A000D7FB0020DFF86C1B08700020DFF8641BBE
:1054B00088700120DFF85C1B4870DFF8540BDFF8C0
:1054C000541B8860DFF8480BFFF708F8DFF8441B2F
:1054D000C860DFF8402BDFF87019DFF8040A04F029
:1054E00077F8002808D5DFF8300BFFF74FF80B20CE
:1054F000DFF84C1908702EE0DFF84C0990F88902AB
:10550000012814D1DFF8140BFFF740F84FF42F7186
:10551000DFF8CC0903F036FF00280CD5DFF8740B58
:10552000FFF734F84FF42F70FEF72BFB03E04FF436
:105530002F70FEF726FBDFF8600BFFF727F8DFF888
:10554000D40A8068FFF722F8D3A0FFF71FF84FF4C2
:10555000FA7000F013FF12E07AA0FFF717F8DFF8F7
:10556000A00603F008FB4FF4FA70FEF70AFB06E012
:1055700000F0FFFE0820DFF8C8180870FFE7A1E57B
:10558000BDE8FE8310B55FF0FF30DFF87C160870D1
:1055900000F090FE040000F08DFE001B41F2883107
:1055A000884212D2DFF82C0B04F0D8F80128F2D18F
:1055B0000120DFF854160870DFF8180B01F086F9A7
:1055C000DFF8440690F9000003E0DFF83C0690F9AC
:1055D000000010BD30B5F9B004005FF0FF35DFF812
:1055E000F81A684604F0E0F8210014A804F0DCF88A
:1055F000AAA146A804F0D8F8684604F03BF90128AF
:105600000BD1DFF8D80AFEF7C1FF2000FEF7BEFF7E
:10561000A1A0FEF7BBFF01200500280040B279B031
:1056200030BDF8B55FF0FF3400F044F8040064B218
:10563000012C38D1DFF8A87A04F082F9DFF8A46AE7
:10564000320000233900022004F02CF9002801D197
:105650003F1D06E0DFF8900AFEF798FF5FF0FF308D
:10566000040000200500B5F5EA7F15DADFF8A00593
:1056700050F8252000233900022004F013F90028F7
:1056800001D13F1D06E0DFF8600AFEF77FFF5FF003
:10569000FF3004006D1CE6E704F060F9DFF84C0A07
:1056A000FEF774FF03E0DFF86C0DFEF76FFF2000DC
:1056B00040B2F2BD10B586B05FF0FF34002000901C
:1056C0000020019002200590072003900120049003
:1056D00004F036F9694601A804F024FA002804D041
:1056E000DFF8340DFEF752FF01E00120040004F062
:1056F00035F9200040B206B010BD38B55FF0FF3478
:10570000DFF8DC59286800900098DFF8D819884243
:1057100011D100210800B0F5EA7F09DA2D1D2968B2
:1057200000910099DFF8E82442F82010401CF2E7CD
:1057300001210C0003E0DFF86C0DFEF727FF2000CD
:1057400040B232BD2E0000002DE9F04792B0002497
:10575000DFF89C09FEF71AFFDFF8A40403F00BFA48
:105760000020040009A9ACA004F0CCFA04004AA06F
:10577000FEF70CFFE4B2202C06D1DFF8280BFEF771
:1057800005FF5FF0FF3084E0DFF81C0BFEF7FEFE44
:10579000DFF86C0403F0EFF90020040001A99EA0DB
:1057A00004F0B0FA04003CA0FEF7F0FEE4B2202CB6
:1057B00006D1DFF8F80AFEF7E9FE5FF0FF3068E097
:1057C000DFF8EC0AFEF7E2FEDFF8340403F0D3F969
:1057D000694691A004F096FA2FA0FEF7D7FE9DF837
:1057E0000000302804D00CD3322807D003D308E0BF
:1057F000002005000CE00120050009E00220050062
:1058000006E0DFF8600BFEF7C1FE5FF0FF3040E01E
:1058100009A8FEF763FE060009AFDFF8F483320043
:1058200039004046FEF776FE01A8FEF757FE804697
:105830000DF10409DFF8DCA3424649465046FEF765
:1058400069FEEDB2002D0AD10426DFF8DC73DFF823
:10585000D486320039004046FEF75CFE16E0EDB219
:10586000012D09D10326BAA7DFF8B8863200390026
:105870004046FEF74FFE09E00426DFF8C875DFF862
:10588000A486320039004046FEF744FE00F0A6FF31
:10589000012012B0BDE8F0870D0A000000000000F2
:1058A00038B504005FF0FF3504F03EFA00F006FD65
:1058B00002F098FF5FF4E13002F0B6FF03F002F867
:1058C000200002F0DAFF0021002001F03AFB002066
:1058D00001F0E0FA04F048FA002806D0DFF8840D61
:1058E000FEF754FE280040B203E001200500280026
:1058F00040B232BD38B55FF0FF34002503F076FFCB
:10590000012805D06D1C052DF8D17FF0030003E0C0
:1059100001200400200040B232BD5FF0FF300021C2
:10592000DFF8A82D51700221DFF8A02D9170012120
:10593000DFF8982DD1700121DFF8902D117601212B
:10594000080040B2704710B55FF0FF34DFF8C005C3
:10595000FFF7D0FA00F010F8040064B2012C06D072
:10596000DFF86C0DFEF712FE200040B203E00120CC
:105970000400200040B210BD10B582B05FF0FF34CB
:1059800000200090DFF8940A006850F00400DFF86F
:105990008C1A0860DFF8840A006810F00400009098
:1059A0000098DFF8040BDFF8881D08600920DFF895
:1059B000801DC860DFF8F40A006842F21071B0FB85
:1059C000F1F0401EDFF8681D48600020DFF8601D20
:1059D00008610020DFF8581D8860DFF8540DFDF7DE
:1059E000CBFD002802D0200040B214E0DFF8400DCB
:1059F000FDF7DEFD002802D0200040B20BE00122BE
:105A000000211E2004F058FA1E2004F068FA01203C
:105A10000400200040B216BD25730000E89901087B
:105A2000D09F010800870108148C0108648C0108CC
:105A3000B48C010810B55FF0FF344E49012003F02B
:105A4000B7F8002808D04B49002003F0B1F800282F
:105A500002D0200040B25FE0DFF8D01A5FF0FF30E4
:105A600004F064FA002802D0200040B254E0DFF8CD
:105A7000C01A002004F088FB002802D0200040B2A9
:105A80004AE0DFF8B01A002004F030FC002802D011
:105A9000200040B240E0DFF8A01A002004F0DEFC55
:105AA000002802D0200040B236E0DFF8881C5FF00A
:105AB000FF3004F0D7FE002802D0200040B22BE0D7
:105AC0009FED500A2B48006803F0D4F9002802D05B
:105AD000200040B220E02748006803F087F9DFF893
